S01100004C45445F50414E454C2E737265636F
S11300000C9434000C948D000C9446000C9446001F
S11300100C9446000C9446000C9446000C94460044
S11300200C9446000C9446000C9446000C94460034
S11300300C9446000C9446000C9446000C94460024
S11300400C9446000C9446000C9446000C94460014
S11300500C9446000C9446000C9446000C94460004
S11300600C9446000C94460011241FBECFEFD8E038
S1130070DEBFCDBF21E0A0E0B1E001C01D92AE31F2
S1130080B207E1F70E94A6000C94CA000C94000089
S1130090DC01CB016FB7F8944BB148605BB1577F7B
S11300A037E02D914BB90000220F000068F00000EA
S11300B05BB900000000000027FB00003150000085
S11300C069F00000EFCF00000000000027FB0000F3
S11300D0315000005BB9000029F7000037E0000050
S11300E04BB900007EF00000000000005BB9000086
S11300F02D91000001970000A9F600006FBF7894CD
S1130100000008952D910000019700005BB90000E4
S113011049F600006FBF789408951F920F920FB6AE
S11301200F9211240F900FBE0F901F9018954EE15F
S113013050E06FE070E080E091E00E94C3006EE167
S113014070E080E091E00E94480008955A9A529825
S1130150E9E6F0E0808181608083E89A7894539A9C
S11301608EE1E0E0F1E0DF011D928A95E9F76EE1AE
S113017070E0CF010E944800C0E0D1E0888190E0A7
S11301800E949700FBCFDC0101C06D9341505040A9
S10B0190E0F70895F894FFCF95
S9030000FC
