:100000000C9453000C9465000C9465000C946500EE
:100010000C9465000C9465000C9465000C946500CC
:100020000C9465000C9465000C9465000C946500BC
:100030000C9465000C9465000C9465000C946500AC
:100040000C9465000C9465000C94BF030C945B0346
:100050000C9465030C9465000C9465000C94650089
:100060000C9465000C9465006B24006572722D631E
:100070006D6424006572722D6765746E6F70726FA7
:10008000702400672573240067256424006572725C
:100090002D62616461646472240074657374696EB6
:1000A00067202564240011241FBECFEFD8E0DEBFF7
:1000B000CDBF27E0A0E0B1E001C01D92A438B20797
:1000C000E1F70E94A5020C9447070C940000FC0184
:1000D0008FB7F894718360835383428317821682AB
:1000E000158214828FBF0895FC01362F2FB7F89424
:1000F00084819581628173818617970718F02FBFDD
:100100008FEF089546815781840F951F0E94FF034A
:10011000A081B181A80FB91F3C938481958101967C
:10012000958384832FBF80E00895AB012FB7F894A7
:10013000FC01158214822FBF60E070E08081918104
:100140000C943104CF93DF93C82F8091C7018111A4
:1001500016C0C13209F43FC0C43251F4809182010B
:10016000882331F08FEF8093C801109282015D984F
:100170008091820181111EC0DF91CF91089510926C
:10018000C7018091C601C81751F0C111F5CF8FEF9B
:100190008093C90180938201DF91CF9108955D9A88
:1001A00080911A0281111FC08FEF80938201CC23AE
:1001B00071F3E2CF6C2F8FE697E00E9474008111FB
:1001C000DBCF8091820790918307019690938307FC
:1001D00080938207D1CF8FEF8093C70180918201F6
:1001E000882351F2E7CFDFEFD093C50160E470E0E0
:1001F0008FE697E00E949500D0938201C6CF1092BF
:10020000C8011092C701109282011092C901109288
:10021000C50182EA90E00C940F03CF93C82F80E0D1
:1002200090E00E94FA06811113C0C11109C081E05B
:100230008093C60161E080E090E0CF910C940207CA
:10024000C093C6016C2F80E090E0CF910C94020720
:100250008093C601CF91089580E090E00C94FA0657
:10026000811102C081E00895682F8093C60180E06B
:1002700090E00E94020780E00895CF93DF93809181
:10028000C901811115C0CAECD1E0FE010190002026
:10029000E9F73197BF016A5C7140CE010E941703F4
:1002A00080E5FE0111928A95E9F7DF91CF910895DB
:1002B00080E5EAECF1E0DF011D928A95E9F7DF9134
:1002C000CF9108958FEF80931A021092C80108957C
:1002D000CF93DF9360E470E08FE697E00E94950093
:1002E00080918301882349F0109283011092C90103
:1002F00010921A02DF91CF91089588E690E09F93C3
:100300008F93CAECD1E0DF93CF930E944704809192
:10031000C9010F900F900F900F9081110CC0FE013A
:1003200001900020E9F73197BF016A5C71408AECC7
:1003300091E00E94170380E5FE0111928A95E9F78A
:10034000D3CFDC01ED91FC911197808180538A30ED
:1003500068F49F012F5F3F4FF90111963C932E9354
:1003600090812F5F3F4F90539A30B0F308952F92B2
:100370003F924F925F926F927F928F929F92AF9235
:10038000BF92CF92DF92EF92FF920F931F93CF9382
:10039000DF9300D0CDB7DEB70E941403FC0190813B
:1003A000818199838A83E92FF82F33243A948AEC48
:1003B000E82E81E0F82E9BE6C92E90E0D92E26E4A7
:1003C000822E27E0922E33E8A32E30E0B32E44E7AE
:1003D000642E40E0742E58E8452E50E0552E808162
:1003E000882391F19F012F5F3F4F3A8329839081AA
:1003F000913609F475C00CF04DC0923409F45CC01C
:10040000973409F04CC030928301CF0102969A8351
:1004100089838181823469F10CF46EC0813609F4DC
:100420006EC0823631F17F926F92FF92EF920E94FE
:1004300047040E943D010F900F900F900F90E981AB
:10044000FA8180818111CECF0F900F90DF91CF91F3
:100450001F910F91FF90EF90DF90CF90BF90AF90E2
:100460009F908F907F906F905F904F903F902F90D4
:1004700008959F928F92BF92AF92FF92EF920E9447
:1004800047040E943D010F900F900F900F900F9026
:100490000F90D5CF923681F0973609F4B4CF3092D1
:1004A0008301DF92CF92FF92EF920E9447040F9058
:1004B0000F900F900F90C3CF2FB6F89409811A8137
:1004C000B80186E497E00E943804F801019000200A
:1004D000E9F78F01015011091A8309832FBEAFCFAD
:1004E000C9010E9413040E94300181111DC0CE0178
:1004F00001960E94A101A3CF813409F094CF0E94FC
:100500002C011F928F935F924F92FF92EF920E9465
:1005100047041092C9010E943D010F900F900F9067
:100520000F900F900F908BCF309283018DE890E069
:100530009F938F93FF92EF920E9447040E943D0188
:100540000F900F900F900F90D2CF539A549A559AC4
:100550005D9A2FEF81EE94E0215080409040E1F7CA
:1005600000C000005D980E94E4020E94FF0081E04C
:100570000E940D0178941F928AE08F938AE990E09F
:100580009F938F93CAECD1E0DF93CF930E944704EF
:1005900009900020E9F72197BE016A5C71408AEC5E
:1005A00091E00E9417030F900F900F900F900F9003
:1005B0000F908091C8018823E1F30E9462010E949C
:1005C000B7010E946801F5CFCF93CFB7F89440E40C
:1005D00050E062E471E08FE697E00E94670040E43B
:1005E00050E062E071E08AE797E00E9467001092B5
:1005F00001011092000188ED8093C10083E3809394
:10060000C4001092C5008FEF80936E071092770799
:100610001092830710928207CFBFCF9108959093D5
:1006200001018093000108958FE697E00895FF92FD
:100630000F931F93CF93DF93FC0190916E07992343
:10064000E1F320917E0730917F07260F371F8091BD
:100650007C0790917D072817390730F561157105E2
:1006600019F1EF012196F0806130710559F08F0189
:10067000060F171F69918AE797E00E947400C01760
:10068000D107C1F78FEF8093770780916E0788239A
:10069000E1F3F092C60010926E078FEFDF91CF91D9
:1006A0001F910F91FF90089580E0DF91CF911F91EE
:1006B0000F91FF9008951F920F920FB60F92112481
:1006C0000F900FBE0F901F9018951F920F920FB6AC
:1006D0000F9211242F933F934F935F938F939F9388
:1006E000EF93FF9380917707882399F120917E07FC
:1006F00030917F0721153105E1F110927907809142
:10070000800790918107E0917A07F0917B07E80FCD
:10071000F91F408140937907019690938107809358
:10072000800740917C0750917D078417950730F032
:10073000841B950B9093810780938007215031098A
:1007400030937F0720937E07809179078093C600BE
:1007500003C08FEF80936E07FF91EF919F918F9170
:100760005F914F913F912F910F900FBE0F901F906F
:100770001895109277078FEF80936E07EDCF1F9239
:100780000F920FB60F9211242F933F934F935F93C5
:100790006F937F938F939F93AF93BF93EF93FF9349
:1007A0008091C6002091000130910101232BB1F00E
:1007B000E0910001F09101010995FF91EF91BF9146
:1007C000AF919F918F917F916F915F914F913F91E9
:1007D0002F910F900FBE0F901F901895682F8FE6E6
:1007E00097E00E9474008111E8CF80918207909178
:1007F000830701969093830780938207DECFAA1B1D
:10080000BB1B51E107C0AA1FBB1FA617B70710F0FB
:10081000A61BB70B881F991F5A95A9F7809590952D
:10082000BC01CD010895FC0188279927E894219106
:100830002032E9F3293010F02E30C8F32B3241F08A
:100840002D3239F4689404C00E943F04820F911D38
:10085000219120532A30C0F31EF4909581959F4F2B
:100860000895DC0101C06D9341505040E0F70895B8
:10087000FB01DC0101900D920020E1F708957AE080
:10088000979F902D879F802D910D11240895AEE0A4
:10089000B0E0EDE4F4E00C941E070D891E898EE0B3
:1008A0008C831A8309838FEF9FE79E838D83AE012C
:1008B000475E5F4F6F89788DCE0101960E94690473
:1008C000EF81F885E00FF11F10822E96E4E00C9482
:1008D0003A07ABE0B0E0EFE6F4E00C9410076C01EF
:1008E0007B018A01FC0117821682838181FFCCC1C2
:1008F000CE0101963C01F6019381F70193FD8591AC
:1009000093FF81917F01882309F4BAC1853239F4BC
:1009100093FD859193FF81917F01853229F4B60182
:1009200090E00E946006E7CF912C212C312CFFE152
:10093000F315D8F08B3279F038F4803279F08332C5
:10094000A1F4232D20611DC08D3261F0803369F444
:10095000232D216016C0832D8260382EE32DE460A4
:100960003E2E2AC0F32DF8601DC037FC2DC020EDAF
:10097000280F2A3040F08E32B9F436FC81C1232D85
:100980002064322E19C036FE06C08AE0989E200DE3
:100990001124922E11C0EAE02E9E200D1124222E49
:1009A000F32DF0623F2E08C08C3621F4832D806831
:1009B000382E02C0883641F4F70193FD859193FFEC
:1009C00081917F018111B3CF982F9F7D95549330F2
:1009D00028F40C5F1F4F9FE399830DC0833631F0DD
:1009E000833771F0833509F059C021C0F801808147
:1009F00089830E5F1F4F88248394912C530113C069
:100A00002801F2E04F0E511CF801A080B18036FEA3
:100A100003C0692D70E002C06FEF7FEFC5010E9437
:100A200055064C018201F32DFF773F2E16C0280199
:100A300022E0420E511CF801A080B18036FE03C0B6
:100A4000692D70E002C06FEF7FEFC5010E944A067A
:100A50004C01F32DF0683F2E820133FC1BC0822D28
:100A600090E088169906B0F4B60180E290E00E940A
:100A700060062A94F4CFF50137FC859137FE819109
:100A80005F01B60190E00E94600621102A9421E0E7
:100A9000821A91088114910471F7E8C0843611F02C
:100AA000893641F5F80137FE07C060817181828186
:100AB00093810C5F1F4F08C060817181072E000C6D
:100AC000880B990B0E5F1F4FF32DFF763F2E97FF7C
:100AD00009C090958095709561957F4F8F4F9F4F7E
:100AE000F0683F2E2AE030E0A3010E949C06882E89
:100AF000861845C0853731F4232D2F7EB22E2AE08B
:100B000030E025C0932D997FB92E8F36C1F018F4AF
:100B1000883579F0B5C0803719F0883721F0B0C03A
:100B2000E92FE061BE2EB4FE0DC0FB2DF460BF2E98
:100B300009C034FE0AC0292F2660B22E06C028E064
:100B400030E005C020E130E002C020E132E0F801F1
:100B5000B7FE07C060817181828193810C5F1F4F56
:100B600006C06081718180E090E00E5F1F4FA3019D
:100B70000E949C06882E8618FB2DFF773F2E36FE9E
:100B80000DC0232D2E7FA22E891458F434FE0BC0E5
:100B900032FC09C0832D8E7EA82E05C0B82CA32C54
:100BA00003C0B82C01C0B92CA4FE0FC0FE01E80D93
:100BB000F11D8081803321F49A2D997EA92E09C0E0
:100BC000A2FE06C0B394B39404C08A2D867809F0BF
:100BD000B394A3FC11C0A0FE06C0B21488F4280C84
:100BE000922C9B180EC0B21460F4B60180E290E023
:100BF0000E946006B394F7CFB21418F42B1802C009
:100C0000982C212CA4FE10C0B60180E390E00E9435
:100C10006006A2FE17C0A1FC03C088E790E002C0F6
:100C200088E590E0B6010CC08A2D867859F0A1FEC7
:100C300002C08BE201C080E2A7FC8DE2B60190E029
:100C40000E946006891438F4B60180E390E00E94A7
:100C500060069A94F7CF8A94F301E80DF11D808124
:100C6000B60190E00E9460068110F5CF222009F4C1
:100C700042CEB60180E290E00E9460062A94F6CF50
:100C8000F6018681978102C08FEF9FEF2B96E2E1FC
:100C90000C942C07FC010590615070400110D8F7AE
:100CA000809590958E0F9F1F0895FC0161507040B4
:100CB00001900110D8F7809590958E0F9F1F089591
:100CC0000F931F93CF93DF93FB01238121FD03C07B
:100CD0008FEF9FEF2CC022FF16C0468157812481E1
:100CE00035814217530744F4A081B1819D012F5FE4
:100CF0003F4F318320838C93268137812F5F3F4F75
:100D00003783268314C08B01EC01FB010084F1853D
:100D1000E02D0995892BE1F6D80116968D919C91CD
:100D20001797019617969C938E931697CE01DF9195
:100D3000CF911F910F910895FA01AA27283051F100
:100D4000203181F1E8946F936E7F6E5F7F4F8F4FFC
:100D50009F4FAF4FB1E03ED0B4E03CD0670F781F5B
:100D6000891F9A1FA11D680F791F8A1F911DA11D40
:100D70006A0F711D811D911DA11D20D009F4689479
:100D80003F912AE0269F11243019305D3193DEF621
:100D9000CF010895462F4770405D4193B3E00FD0D7
:100DA000C9F7F6CF462F4F70405D4A3318F0495DC2
:100DB00031FD4052419302D0A9F7EACFB4E0A695A5
:100DC0009795879577956795BA95C9F700976105C7
:100DD000710508959B01AC010A2E0694579547951D
:100DE00037952795BA95C9F7620F731F841F951F12
:100DF000A01D0895F999FECF92BD81BDF89A99275B
:100E000080B50895262FF999FECF1FBA92BD81BDF6
:100E100020BD0FB6F894FA9AF99A0FBE019608957C
:100E20002F923F924F925F926F927F928F929F92FA
:100E3000AF92BF92CF92DF92EF92FF920F931F93E8
:100E4000CF93DF93CDB7DEB7CA1BDB0B0FB6F89499
:100E5000DEBF0FBECDBF09942A88398848885F84D9
:100E60006E847D848C849B84AA84B984C884DF804A
:100E7000EE80FD800C811B81AA81B981CE0FD11D2E
:100E80000FB6F894DEBF0FBECDBFED010895F89404
:020E9000FFCF92
:00000001FF
