:100000000C944D000C945F000C945F000C945F0006
:100010000C945F000C945F000C945F000C945F00E4
:100020000C945F000C945F000C945F000C945F00D4
:100030000C945F000C945F000C945F000C945F00C4
:100040000C945F000C945F000C9440060C949F0588
:100050000C94B2050C945F000C945F000C945F004C
:100060000C945F000C945F006B24006572722D622B
:1000700061646164647224006725642400672573E9
:1000800024006572722D6765746E6F70726F7024D4
:10009000006572722D636D64240011241FBECFEFC2
:1000A000D8E0DEBFCDBF27E0A0E0B1E001C01D92E7
:1000B000A438B207E1F70E9401020C94900B0C9453
:1000C0000000CF93DF93CDB7DEB727970FB6F89434
:1000D000DEBF0FBECDBF9B838A837D836C835F832E
:1000E0004E838FE590E0FC0180818983F8948A81BA
:1000F0009B812C813D81FC01318320838A819B81FE
:100100002E813F81FC01338322838A819B81FC0104
:10011000178216828A819B81FC01158214828FE5E9
:1001200090E02981FC012083000027960FB6F89407
:10013000DEBF0FBECDBFDF91CF910895CF93DF9388
:1001400000D000D0CDB7DEB79B838A836C838FE568
:1001500090E0FC0180818983F8948A819B81FC0175
:10016000248135818A819B81FC01828193812817BA
:100170003907A0F58A819B81FC01208131818A8128
:100180009B81FC01468157818A819B81FC0184818E
:100190009581BA01680F791F8A819B81FC01428198
:1001A0005381CB01BA010E941D08820F931F2C813D
:1001B000FC0120838A819B81FC01848195819C01C3
:1001C0002F5F3F4F8A819B81FC01358324838FE51C
:1001D00090E02981FC01208380E006C08FE590E05B
:1001E0002981FC0120838FEF0F900F900F900F90CB
:1001F000DF91CF910895CF93DF9300D000D01F926D
:10020000CDB7DEB79B838A837D836C838FE590E0D7
:10021000FC0180818983F8948A819B81FC0115828D
:1002200014828FE590E02981FC0120838A819B81E3
:10023000FC01808191812C813D81A90160E070E009
:100240000E94710800000F900F900F900F900F9078
:10025000DF91CF910895CF93DF931F92CDB7DEB793
:1002600089830E944C018093C6018091C601882336
:1002700071F48981882321F089818093C60103C0AC
:1002800081E08093C6018091C6010E945701000061
:100290000F90DF91CF910895CF93DF93CDB7DEB765
:1002A00080E090E00E94430BDF91CF910895CF93BF
:1002B000DF931F92CDB7DEB789838981882311F43C
:1002C00081E009C089818093C601698180E090E066
:1002D0000E944B0B80E00F90DF91CF910895CF9358
:1002E000DF93CDB7DEB78091C901882349F040E59F
:1002F00050E060E070E08AEC91E00E94710811C06B
:100300008AEC91E00E947F08BC018AEC91E00E9497
:10031000160440E550E060E070E08AEC91E00E9455
:100320007108DF91CF910895CF93DF93CDB7DEB7FA
:100330008FEF80931A021092C8010000DF91CF91D5
:100340000895CF93DF93CDB7DEB760E470E08FE61A
:1003500097E00E94FB00809183018823A1F488E646
:1003600090E0292F2F938F938AEC91E0892F8F9320
:100370008AEC91E08F930E9490080F900F900F905D
:100380000F900E946F01109283011092C901109288
:100390001A020000DF91CF910895CF93DF9300D030
:1003A000CDB7DEB79A8389830DC089819A81FC011C
:1003B000808191819C012F5F3F4F89819A81FC014F
:1003C0003183208389819A81FC0180819181FC01A4
:1003D000808121E0803308F420E089819A81FC014A
:1003E00080819181FC01908181E09A3308F080E066
:1003F00082238823D1F600000F900F90DF91CF91D8
:100400000895CF93DF93CDB7DEB78AE290E02AE27A
:1004100030E0F90120812860FC0120838AE290E02D
:100420002AE230E0F90120812061FC0120830E9452
:100430004A0360E875E280E090E00E94950381E065
:100440000E942B018091C8018823E1F30E9494014E
:100450000E942D020E94A101F5CFCF93DF9300D01F
:1004600000D000D0CDB7DEB70E94F4039A83898311
:1004700089819A81FC01808191819E838D83DCC07A
:100480008D819E819C012F5F3F4F3E832D83FC0118
:100490008081882F90E08136910591F08236910518
:1004A00044F48234910591F18734910509F43EC0FA
:1004B000AEC08236910551F187369105B9F1A7C0DA
:1004C0008D819E810E9453080E9457018B838B81EE
:1004D0008823B9F08FEF809383018BE690E0292F7A
:1004E0002F938F938AEC91E0892F8F938AEC91E080
:1004F0008F930E9490080F900F900F900F900E9482
:100500006F01CE0105960E94CD0196C08FE590E067
:10051000FC0180818C83F8948D819E810E942D0343
:100520008FE590E02C81FC01208386C08FEF8093C3
:1005300083018D819E819C012F5F3F4F3E832D83E0
:10054000FC018081882F90E08234910571F1833421
:10055000910524F48134910541F044C08136910520
:1005600021F08236910509F13DC00E944C01282FEF
:1005700030E088E790E0432F4F932F93292F2F935C
:100580008F938AEC91E0892F8F938AEC91E08F937F
:100590000E9490080F900F900F900F900F900F9067
:1005A0001092C9010E946F0131C00E9441039C0159
:1005B0008DE790E0432F4F932F93292F2F938F9305
:1005C0008AEC91E0892F8F938AEC91E08F930E94BF
:1005D00090080F900F900F900F900F900F900E9427
:1005E0006F0114C082E890E0292F2F938F938AEC3B
:1005F00091E0892F8F938AEC91E08F930E9490086D
:100600000F900F900F900F900E946F0115C08FEF09
:100610008093830181E990E0292F2F938F938AECB7
:1006200091E0892F8F938AEC91E08F930E9490083C
:100630000F900F900F900F908D819E81FC01808113
:10064000882309F01DCF000026960FB6F894DEBF70
:100650000FBECDBFDF91CF910895CF93DF9300D030
:10066000CDB7DEB79A83898389819A81BC0186E4FC
:1006700097E00E94780800000F900F90DF91CF91D3
:100680000895CF93DF93CDB7DEB786E497E0DF918F
:10069000CF910895CF93DF931F92CDB7DEB78FE54B
:1006A00090E0FC0180818983F8940E947D03109280
:1006B00081011092800181EC90E028EDFC01208303
:1006C00060E07BE480E090E00E9495038FEF8093F0
:1006D0006E071092770710928307109282070E948C
:1006E0007D050E948E058FE590E02981FC01208325
:1006F00000000F90DF91CF910895CF93DF93CDB796
:10070000DEB740E450E060E071E08FE697E00E94E1
:10071000610040E450E060E471E08AE797E00E9405
:1007200061000000DF91CF910895EF92FF920F9347
:100730001F93CF93DF9300D000D000D0CDB7DEB7AA
:100740006B837C838D839E838B819C81AD81BE81F5
:1007500080589B47A14EBF4F880F991FAA1FBB1FF0
:10076000880F991FAA1FBB1F880F991FAA1FBB1FA5
:100770007C018D018B819C81AD81BE81880F991F89
:10078000AA1FBB1F880F991FAA1FBB1F880F991F85
:10079000AA1FBB1F880F991FAA1FBB1F9C01AD0179
:1007A000C801B7010E943108DA01C90101979A8393
:1007B000898384EC90E02981FC01208385EC90E022
:1007C00029813A81232F3327FC01208300002696BC
:1007D0000FB6F894DEBF0FBECDBFDF91CF911F9152
:1007E0000F91FF90EF900895CF93DF93CDB7DEB7D1
:1007F0008FE697E0DF91CF910895CF93DF931F921B
:10080000CDB7DEB78983000080916E078823E1F3BE
:100810000E946C0586EC90E02981FC0120831092F7
:100820006E0700000F90DF91CF910895FF920F9314
:100830001F93CF93DF93CDB7DEB7A4970FB6F8948D
:10084000DEBF0FBECDBF9AA389A37CA36BA300001C
:1008500080916E078823E1F320917E0730917F0716
:100860008BA19CA1280F391F80917C0790917D0757
:100870002817390708F023C18BA19CA1892B09F403
:100880001EC189A19AA19C012F5F3F4F3AA329A3C2
:10089000FC018081F82E00E010E012C089A19AA12D
:1008A0009C012F5F3F4F3AA329A3FC018081682F51
:1008B0008AE797E00E949E00C8018C010F5F1F4FDE
:1008C0008BA19CA101970817190740F38FEF809324
:1008D00077070E946C0580E090E0A0E8BFE3898381
:1008E0009A83AB83BC832BEA3AEA4AEA50E46981F3
:1008F0007A818B819C810E94B007DC01CB018D83C2
:100900009E83AF83B88720E030E040E850E46981FF
:100910007A818B819C810E94B007DC01CB018987A1
:100920009A87AB87BC8720E030E040E85FE36D81C9
:100930007E818F8198850E94900688231CF481E037
:100940008D87B2C020E03FEF4FE757E469857A8595
:100950008B859C850E94AB0718160CF07BC020E0AD
:1009600030E04AE754E469817A818B819C810E945E
:100970009506DC01CB018E879F87A88BB98B20E081
:1009800030E04AE755E46E857F85888999890E9421
:10099000B007DC01CB018A8B9B8BAC8BBD8B20E03D
:1009A00030E040E85FE36A897B898C899D890E94F9
:1009B000900688232CF481E090E09F8B8E8B3FC0C3
:1009C00020E03FEF4FE757E46A897B898C899D8956
:1009D0000E94AB0718164CF520E030E040E251E4ED
:1009E0006E857F85888999890E94B007DC01CB01DB
:1009F000BC01CD010E940707DC01CB019F8B8E8BD0
:100A00000FC080E991E0998F888F888D998D01972B
:100A1000F1F7998F888F8E899F8901979F8B8E8B95
:100A20008E899F89892B69F73FC06A897B898C8968
:100A30009D890E940707DC01CB019F8B8E8B8E89DD
:100A40009F899B8F8A8F8A8D9B8D0197F1F79B8F52
:100A50008A8F2AC020E030E04FE753E46D817E8129
:100A60008F8198850E94AB071816ACF469857A854A
:100A70008B859C850E940707DC01CB019D8F8C8FA5
:100A80008C8D9D8D9F8F8E8F8E8D9F8D0197F1F711
:100A90009F8F8E8F0FC06D817E818F8198850E9480
:100AA0000707DC01CB018D878D8588A388A18A95F6
:100AB000F1F788A38F2D0E94FD038FEF01C080E026
:100AC000A4960FB6F894DEBF0FBECDBFDF91CF91D5
:100AD0001F910F91FF900895CF93DF93CDB7DEB7AD
:100AE0008BE290E02BE230E0F90120812460FC01F0
:100AF00020830000DF91CF910895CF93DF93CDB78E
:100B0000DEB78BE290E02BE230E0F90120812B7F11
:100B1000FC0120830000DF91CF910895CF93DF93F4
:100B2000CDB7DEB78AE290E02AE230E0F901208119
:100B30002460FC0120830000DF91CF9108951F9273
:100B40000F9200905F000F921124CF93DF93CDB7E7
:100B5000DEB70000DF91CF910F9000925F000F9001
:100B60001F9018951F920F9200905F000F92112412
:100B70002F933F934F935F936F937F938F939F93A5
:100B8000AF93BF93EF93FF93CF93DF93CDB7DEB7D0
:100B900080917707882309F459C080917E0790914E
:100BA0007F07892B09F44AC01092790780917E074C
:100BB00090917F07892BD9F120917A0730917B079B
:100BC0008091800790918107820F931FFC018081A3
:100BD0008093790780918007909181070196909387
:100BE0008107809380072091800730918107809151
:100BF0007C0790917D072817390780F020918007A6
:100C00003091810780917C0790917D07A901481B55
:100C1000590BCA01909381078093800780917E07CA
:100C200090917F07019790937F0780937E0786ECD2
:100C300090E020917907FC0120830DC01092770786
:100C40008FEF80936E070E947D0505C08FEF809324
:100C50006E070E947D050000DF91CF91FF91EF911B
:100C6000BF91AF919F918F917F916F915F914F91C4
:100C70003F912F910F9000925F000F901F90189559
:100C80001F920F9200905F000F9211242F933F93B9
:100C90004F935F936F937F938F939F93AF93BF9384
:100CA000EF93FF93CF93DF931F92CDB7DEB786EC20
:100CB00090E0FC0180818983809180019091810185
:100CC000892B41F020918001309181018981F901C6
:100CD000099510C069818FE697E00E949E008823E5
:100CE00049F480918207909183070196909383073E
:100CF0008093820700000F90DF91CF91FF91EF91D9
:100D0000BF91AF919F918F917F916F915F914F9123
:100D10003F912F910F9000925F000F901F901895B8
:100D20000E94360708F481E008950E94A9060C94F9
:100D300071070E946A0758F00E94630740F029F487
:100D40005F3F29F00C945A0751110C94A5070C949D
:100D500060070E94820768F39923B1F3552391F34A
:100D6000951B550BBB27AA2762177307840738F01A
:100D70009F5F5F4F220F331F441FAA1FA9F335D077
:100D80000E2E3AF0E0E832D091505040E695001C2B
:100D9000CAF72BD0FE2F29D0660F771F881FBB1FE5
:100DA000261737074807AB07B0E809F0BB0B802DC3
:100DB000BF01FF2793585F4F3AF09E3F510578F0EF
:100DC0000C945A070C94A5075F3FE4F3983ED4F3C4
:100DD000869577956795B795F7959F5FC9F7880FC3
:100DE000911D9695879597F90895E1E0660F771F15
:100DF000881FBB1F621773078407BA0720F0621BA6
:100E0000730B840BBA0BEE1F88F7E09508950E94D0
:100E10008A0788F09F5798F0B92F9927B751B0F0FB
:100E2000E1F0660F771F881F991F1AF0BA95C9F76E
:100E300014C0B13091F00E94A407B1E008950C9461
:100E4000A407672F782F8827B85F39F0B93FCCF314
:100E5000869577956795B395D9F73EF490958095EB
:100E6000709561957F4F8F4F9F4F0895990F0008A0
:100E7000550FAA0BE0E8FEEF16161706E807F9076C
:100E8000C0F012161306E407F50798F0621B730B07
:100E9000840B950B39F40A2661F0232B242B252B88
:100EA00021F408950A2609F4A140A6958FEF811D2B
:100EB000811D089597F99F6780E870E060E00895CC
:100EC0009FEF80EC089500240A9416161706180662
:100ED0000906089500240A9412161306140605063E
:100EE0000895092E0394000C11F4882352F0BB0FCF
:100EF00040F4BF2B11F460FF04C06F5F7F4F8F4F32
:100F00009F4F089557FD9058440F551F59F05F3F6C
:100F100071F04795880F97FB991F61F09F3F79F01B
:100F200087950895121613061406551FF2CF46959D
:100F3000F1DF08C0161617061806991FF1CF86951F
:100F40007105610508940895E894BB276627772703
:100F5000CB0197F908950E94360708F48FEF0895A2
:100F60000E94C3070C9471070E94630738F00E9427
:100F70006A0720F0952311F00C945A070C9460072F
:100F800011240C94A5070E94820770F3959FC1F36A
:100F9000950F50E0551F629FF001729FBB27F00D27
:100FA000B11D639FAA27F00DB11DAA1F649F66277C
:100FB000B00DA11D661F829F2227B00DA11D621FCB
:100FC000739FB00DA11D621F839FA00D611D221F85
:100FD000749F3327A00D611D231F849F600D211D69
:100FE000822F762F6A2F11249F5750409AF0F1F0EC
:100FF00088234AF0EE0FFF1FBB1F661F771F881F55
:1010000091505040A9F79E3F510580F00C945A072B
:101010000C94A5075F3FE4F3983ED4F3869577954B
:101020006795B795F795E7959F5FC1F7FE2B880FFA
:10103000911D9695879597F90895AA1BBB1B51E1C1
:1010400007C0AA1FBB1FA617B70710F0A61BB70B38
:10105000881F991F5A95A9F780959095BC01CD01DD
:101060000895A1E21A2EAA1BBB1BFD010DC0AA1FE9
:10107000BB1FEE1FFF1FA217B307E407F50720F001
:10108000A21BB30BE40BF50B661F771F881F991F7C
:101090001A9469F760957095809590959B01AC01C5
:1010A000BD01CF010895FC0188279927E89421917B
:1010B0002032E9F3293010F02E30C8F32B3241F002
:1010C0002D3239F4689404C00E948808820F911D63
:1010D000219120532A30C0F31EF4909581959F4FA3
:1010E0000895DC0101C06D9341505040E0F7089530
:1010F000FB01DC0101900D920020E1F70895FC0155
:1011000001900020E9F7809590958E0F9F1F08951C
:101110007AE0979F902D879F802D910D112408953F
:10112000AEE0B0E0E6E9F8E00C94670B0D891E89AB
:101130008EE08C831A8309838FEF9FE79E838D83D4
:10114000AE01475E5F4F6F89788DCE0101960E9498
:10115000B208EF81F885E00FF11F10822E96E4E0CF
:101160000C94830BABE0B0E0E8EBF8E00C94590B87
:101170006C017B018A01FC0117821682838181FF49
:10118000CCC1CE0101963C01F6019381F70193FD9C
:10119000859193FF81917F01882309F4BAC185323B
:1011A00039F493FD859193FF81917F01853229F474
:1011B000B60190E00E94A90AE7CF912C212C312C96
:1011C000FFE1F315D8F08B3279F038F4803279F002
:1011D0008332A1F4232D20611DC08D3261F0803354
:1011E00069F4232D216016C0832D8260382EE32DF3
:1011F000E4603E2E2AC0F32DF8601DC037FC2DC0E0
:1012000020ED280F2A3040F08E32B9F436FC81C12F
:10121000232D2064322E19C036FE06C08AE0989E27
:10122000200D1124922E11C0EAE02E9E200D1124D3
:10123000222EF32DF0623F2E08C08C3621F4832D30
:101240008068382E02C0883641F4F70193FD8591FD
:1012500093FF81917F018111B3CF982F9F7D95548A
:10126000933028F40C5F1F4F9FE399830DC08336A2
:1012700031F0833771F0833509F059C021C0F8018E
:10128000808189830E5F1F4F88248394912C5301A2
:1012900013C02801F2E04F0E511CF801A080B1806C
:1012A00036FE03C0692D70E002C06FEF7FEFC5010D
:1012B0000E949E0A4C018201F32DFF773F2E16C03B
:1012C000280122E0420E511CF801A080B18036FEB8
:1012D00003C0692D70E002C06FEF7FEFC5010E946F
:1012E000930A4C01F32DF0683F2E820133FC1BC0A2
:1012F000822D90E088169906B0F4B60180E290E065
:101300000E94A90A2A94F4CFF50137FC859137FE93
:1013100081915F01B60190E00E94A90A21102A94F0
:1013200021E0821A91088114910471F7E8C0843693
:1013300011F0893641F5F80137FE07C060817181EF
:10134000828193810C5F1F4F08C060817181072EDD
:10135000000C880B990B0E5F1F4FF32DFF763F2E6D
:1013600097FF09C090958095709561957F4F8F4F3D
:101370009F4FF0683F2E2AE030E0A3010E94E50A6B
:10138000882E861845C0853731F4232D2F7EB22E46
:101390002AE030E025C0932D997FB92E8F36C1F019
:1013A00018F4883579F0B5C0803719F0883721F006
:1013B000B0C0E92FE061BE2EB4FE0DC0FB2DF4607D
:1013C000BF2E09C034FE0AC0292F2660B22E06C0E7
:1013D00028E030E005C020E130E002C020E132E04A
:1013E000F801B7FE07C060817181828193810C5F33
:1013F0001F4F06C06081718180E090E00E5F1F4F3B
:10140000A3010E94E50A882E8618FB2DFF773F2E48
:1014100036FE0DC0232D2E7FA22E891458F434FEE3
:101420000BC032FC09C0832D8E7EA82E05C0B82CBF
:10143000A32C03C0B82C01C0B92CA4FE0FC0FE0120
:10144000E80DF11D8081803321F49A2D997EA92E1B
:1014500009C0A2FE06C0B394B39404C08A2D867856
:1014600009F0B394A3FC11C0A0FE06C0B21488F426
:10147000280C922C9B180EC0B21460F4B60180E2C6
:1014800090E00E94A90AB394F7CFB21418F42B1875
:1014900002C0982C212CA4FE10C0B60180E390E07D
:1014A0000E94A90AA2FE17C0A1FC03C088E790E031
:1014B00002C088E590E0B6010CC08A2D867859F00C
:1014C000A1FE02C08BE201C080E2A7FC8DE2B60162
:1014D00090E00E94A90A891438F4B60180E390E0F4
:1014E0000E94A90A9A94F7CF8A94F301E80DF11D9E
:1014F0008081B60190E00E94A90A8110F5CF2220D8
:1015000009F442CEB60180E290E00E94A90A2A9432
:10151000F6CFF6018681978102C08FEF9FEF2B9661
:10152000E2E10C94750BFC010590615070400110D4
:10153000D8F7809590958E0F9F1F0895FC016150FC
:10154000704001900110D8F7809590958E0F9F1FE5
:1015500008950F931F93CF93DF93FB01238121FD08
:1015600003C08FEF9FEF2CC022FF16C0468157812A
:10157000248135814217530744F4A081B1819D0134
:101580002F5F3F4F318320838C93268137812F5FDC
:101590003F4F3783268314C08B01EC01FB0100848D
:1015A000F185E02D0995892BE1F6D80116968D91EC
:1015B0009C911797019617969C938E931697CE0140
:1015C000DF91CF911F910F910895FA01AA2728303A
:1015D00051F1203181F1E8946F936E7F6E5F7F4F00
:1015E0008F4F9F4FAF4FB1E03ED0B4E03CD0670F7C
:1015F000781F891F9A1FA11D680F791F8A1F911DCF
:10160000A11D6A0F711D811D911DA11D20D009F41E
:1016100068943F912AE0269F11243019305D319360
:10162000DEF6CF010895462F4770405D4193B3E049
:101630000FD0C9F7F6CF462F4F70405D4A3318F0F0
:10164000495D31FD4052419302D0A9F7EACFB4E0A1
:10165000A6959795879577956795BA95C9F7009759
:101660006105710508959B01AC010A2E06945795FA
:10167000479537952795BA95C9F7620F731F841F51
:10168000951FA01D0895F999FECF92BD81BDF89ACE
:10169000992780B50895262FF999FECF1FBA92BDDC
:1016A00081BD20BD0FB6F894FA9AF99A0FBE019643
:1016B00008952F923F924F925F926F927F928F92F6
:1016C0009F92AF92BF92CF92DF92EF92FF920F93D1
:1016D0001F93CF93DF93CDB7DEB7CA1BDB0B0FB6DB
:1016E000F894DEBF0FBECDBF09942A883988488898
:1016F0005F846E847D848C849B84AA84B984C8842E
:10170000DF80EE80FD800C811B81AA81B981CE0F24
:10171000D11D0FB6F894DEBF0FBECDBFED01089509
:04172000F894FFCF6B
:00000001FF
