S00F00004C4544535452312E7372656316
S11300000C9455000C9467000C9467000C946700E2
S11300100C9467000C9467000C9467000C946700C0
S11300200C9467000C9467000C9467000C946700B0
S11300300C9467000C9467000C9467000C946700A0
S11300400C9467000C9467000C943B040C94D70345
S11300500C94E1030C9467000C9467000C94670003
S11300600C9467000C9467006B24006572722D6316
S11300706D6424006572722D6765746E6F70726FA3
S11300807024006725732400673078253032782483
S1130090006572722D626164616464722400746527
S11300A07374696E67202564240011241FBECFEF8A
S11300B0D8E0DEBFCDBF27E0A0E0B1E001C01D92D3
S11300C0A538B207E1F70E9405030C94C5070C9408
S11300D00000FC018FB7F8947183608353834283DB
S11300E017821682158214828FBF0895FC01362F61
S11300F02FB7F8948481958162817381861797075D
S113010018F02FBF8FEF089546815781840F951FF4
S11301100E947D04A081B181A80FB91F3C93848102
S113012095810196958384832FBF80E00895AB0168
S11301302FB7F894FC01158214822FBF60E070E0A1
S1130140808191810C94AF040F931F93CF93C82F98
S11301508091C801811117C0C13209F442C0C43270
S113016051F480918301882331F08FEF8093C9018A
S1130170109283015D9880918301811121C0CF91F8
S11301801F910F9108951092C8018091C701C8175B
S113019061F0C111F4CF5D9A8FEF8093CA0180930F
S11301A08301CF911F910F9108955D9A80911B0255
S11301B081111FC08FEF80938301CC2361F3DFCFC4
S11301C06C2F80E797E00E9476008111D8CF809150
S11301D08307909184070196909384078093830703
S11301E0CECF8FEF8093C80180918301882339F2A9
S11301F0E7CF8FEF8093C601109284018093CA01E8
S113020080918501882331F1109285018091CA0182
S11302100BEC11E081110EC010928401F8010190E1
S11302200020E9F73197BF016B5C71408BEC91E0E2
S11302300E94930380E5F80111928A95E9F760E43E
S113024070E080E797E00E9497001092CA01109234
S11302501B02B0CF88E690E09F938F930BEC11E0E4
S11302601F930F930E94C5048091CA010F900F90B1
S11302700F900F90882381F2809184018111CCCF5B
S1130280D9CF1092C9011092C80110928301109223
S1130290CA011092C6011092840184EA90E00E947F
S11302A08B0380E090E00E9478078093C701882345
S11302B031F081E090E00E947807853A59F081E3BB
S11302C08093C70161E380E090E00E948007809101
S11302D000018111089565EA81E090E00E948007A1
S11302E08FEF80930001089580E090E00C947807EC
S11302F0811102C081E00895682F8093C70180E0D6
S113030090E00E94800780E008959091C90181E007
S1130310911101C080E081950895CF93DF9380917E
S1130320CA01882321F0809184018823B9F01092B6
S11303308401CBECD1E0FE0101900020E9F7319774
S1130340BF016B5C7140CE010E94930380E5FE0106
S113035011928A95E9F7DF91CF910895CBECD1E022
S113036080E5FE0111928A95E9F7DF91CF91089516
S11303708FEF8093840108958FEF80938501089512
S11303808FEF80931B021092C9010895CF93DF93DE
S113039080918501882361F110928501CBECD1E035
S11303A08091CA01882321F080918401882371F00F
S11303B010928401FE0101900020E9F73197BF01FA
S11303C06B5C71408BEC91E00E94930380E5FE012D
S11303D011928A95E9F760E470E080E797E00E9463
S11303E097001092CA0110921B02DF91CF910895D9
S11303F088E690E09F938F93CBECD1E0DF93CF938B
S11304000E94C5040F900F900F900F90C9CFDC018C
S1130410ED91FC911197808180538A3068F49F019B
S11304202F5F3F4FF90111963C932E9390812F5FDC
S11304303F4F90539A30B0F308953F924F925F929A
S11304406F927F928F929F92AF92BF92CF92DF92E0
S1130450EF92FF920F931F93CF93DF9300D0CDB70A
S1130460DEB70E949003FC019081818199838A8385
S1130470E92FF82F8BECE82E81E0F82E9BE6C92EAD
S113048090E0D92E27E4822E27E0922E33E8A32E83
S113049030E0B32E44E7642E40E0742E58E8452E35
S11304A050E0552E80818823A1F19F012F5F3F4F9B
S11304B03A8329839081913609F476C00CF04EC0BA
S11304C0923409F45DC0973409F04DC00E94BC0118
S11304D0E981FA81CF0101969A83898380818234EC
S11304E061F10CF46DC0813609F46DC0823629F1D6
S11304F07F926F92FF92EF920E94C5040E948D0139
S11305000F900F900F900F90E981FA8180818111F3
S1130510CCCF0F900F90DF91CF911F910F91FF904F
S1130520EF90DF90CF90BF90AF909F908F907F908F
S11305306F905F904F903F9008959F928F92BF92DB
S1130540AF92FF92EF920E94C5040E948D010F901A
S11305500F900F900F900F900F90D6CF923681F09E
S1130560973609F4B3CF0E94BC01DF92CF92FF9279
S1130570EF920E94C5040F900F900F900F90C4CF7C
S11305803FB6F89409811A81B80187E497E00E9484
S1130590B604F80101900020E9F78F010150110918
S11305A01A8309833FBEB0CFC9010E9491040E94FF
S11305B0780181111BC0CE0101960E940702A4CFCD
S11305C0813409F095CF0E9474011F928F935F923A
S11305D04F92FF92EF920E94C5040E94B8010F90BF
S11305E00F900F900F900F900F908ECF0E94BC0130
S11305F081E990E09F938F93FF92EF920E94C5044C
S11306000F900F900F900F90D6CF539A549A559AFB
S1130610569A579A5D9A2FEF81EE94E021508040CC
S11306209040E1F700C000005D985E9A2FEF81EEE4
S113063094E0215080409040E1F700C000005E98B3
S11306405F9A2FEF81EE94E0215080409040E1F7D3
S113065000C000005F980E9460030E9441017894EA
S11306601F9281E38F938EE990E09F938F93CBEC5D
S1130670D1E0DF93CF930E94C50409900020E9F7ED
S11306802197BE016B5C71408BEC91E00E94930357
S11306900F900F900F900F900F900F900E94850174
S11306A0811105C05F980E9485018823D9F35F9A60
S11306B00E94C0010E941D020E94C6015F98F3CFF0
S11306C0CF93CFB7F89440E450E063E471E080E75F
S11306D097E00E94690040E450E063E071E08BE73A
S11306E097E00E946900109202011092010188EDC6
S11306F08093C10083E38093C4001092C5008FEF00
S113070080936F07109278071092840710928307E2
S1130710CFBFCF9108959093020180930101089572
S113072080E797E00895FF920F931F93CF93DF9391
S1130730FC0190916F079923E1F320917F07309199
S11307408007260F371F80917D0790917E07281719
S1130750390730F56115710519F1EF012196F08023
S11307606130710559F08F01060F171F69918BE7EE
S113077097E00E947600C017D107C1F78FEF8093EE
S1130780780780916F078823E1F3F092C6001092F6
S11307906F078FEFDF91CF911F910F91FF90089515
S11307A080E0DF91CF911F910F91FF9008951F92E8
S11307B00F920FB60F9211240F900FBE0F901F903F
S11307C018951F920F920FB60F9211242F933F93F7
S11307D04F935F938F939F93EF93FF938091780749
S11307E0882399F120917F073091800721153105E5
S11307F0E1F110927A078091810790918207E0914C
S11308007B07F0917C07E80FF91F408140937A073A
S11308100196909382078093810740917D075091C0
S11308207E078417950730F0841B950B90938207FD
S113083080938107215031093093800720937F07EB
S113084080917A078093C60003C08FEF80936F076F
S1130850FF91EF919F918F915F914F913F912F91D4
S11308600F900FBE0F901F901895109278078FEF7E
S113087080936F07EDCF1F920F920FB60F92112442
S11308802F933F934F935F936F937F938F939F9394
S1130890AF93BF93EF93FF938091C6002091010122
S11308A030910201232BC1F05E9AE0910101F09195
S11308B0020109955E98FF91EF91BF91AF919F91CD
S11308C08F917F916F915F914F913F912F910F90F5
S11308D00FBE0F901F901895682F80E797E00E9435
S11308E076008111E8CF8091830790918407019667
S11308F09093840780938307DECFAA1BBB1B51E12F
S113090007C0AA1FBB1FA617B70710F0A61BB70B7B
S1130910881F991F5A95A9F780959095BC01CD0120
S11309200895FC0188279927E89421912032E9F35E
S1130930293010F02E30C8F32B3241F02D3239F427
S1130940689404C00E94BD04820F911D219120531C
S11309502A30C0F31EF4909581959F4F0895DC01D1
S113096001C06D9341505040E0F70895FB01DC0154
S113097001900D920020E1F708957AE0979F902D61
S1130980879F802D910D11240895AEE0B0E0EBEC2B
S1130990F4E00C949C070D891E898EE08C831A83E5
S11309A009838FEF9FE79E838D83AE01475E5F4F80
S11309B06F89788DCE0101960E94E704EF81F88556
S11309C0E00FF11F10822E96E4E00C94B807ABE020
S11309D0B0E0EDEEF4E00C948E076C017B018A012B
S11309E0FC0117821682838181FFCCC1CE0101965E
S11309F03C01F6019381F70193FD859193FF819169
S1130A007F01882309F4BAC1853239F493FD8591B5
S1130A1093FF81917F01853229F4B60190E00E9411
S1130A20DE06E7CF912C212C312CFFE1F315D8F011
S1130A308B3279F038F4803279F08332A1F4232DAB
S1130A4020611DC08D3261F0803369F4232D216053
S1130A5016C0832D8260382EE32DE4603E2E2AC01A
S1130A60F32DF8601DC037FC2DC020ED280F2A306F
S1130A7040F08E32B9F436FC81C1232D2064322E2D
S1130A8019C036FE06C08AE0989E200D1124922ECD
S1130A9011C0EAE02E9E200D1124222EF32DF062C7
S1130AA03F2E08C08C3621F4832D8068382E02C076
S1130AB0883641F4F70193FD859193FF81917F017D
S1130AC08111B3CF982F9F7D9554933028F40C5FF8
S1130AD01F4F9FE399830DC0833631F0833771F044
S1130AE0833509F059C021C0F801808189830E5FE4
S1130AF01F4F88248394912C530113C02801F2E0E2
S1130B004F0E511CF801A080B18036FE03C0692D40
S1130B1070E002C06FEF7FEFC5010E94D3064C0165
S1130B208201F32DFF773F2E16C0280122E0420EEA
S1130B30511CF801A080B18036FE03C0692D70E01D
S1130B4002C06FEF7FEFC5010E94C8064C01F32D70
S1130B50F0683F2E820133FC1BC0822D90E0881682
S1130B609906B0F4B60180E290E00E94DE062A9471
S1130B70F4CFF50137FC859137FE81915F01B60111
S1130B8090E00E94DE0621102A9421E0821A910846
S1130B908114910471F7E8C0843611F0893641F567
S1130BA0F80137FE07C060817181828193810C5FF7
S1130BB01F4F08C060817181072E000C880B990BB0
S1130BC00E5F1F4FF32DFF763F2E97FF09C09095C0
S1130BD08095709561957F4F8F4F9F4FF0683F2EA2
S1130BE02AE030E0A3010E941A07882E861845C027
S1130BF0853731F4232D2F7EB22E2AE030E025C034
S1130C00932D997FB92E8F36C1F018F4883579F079
S1130C10B5C0803719F0883721F0B0C0E92FE06102
S1130C20BE2EB4FE0DC0FB2DF460BF2E09C034FEF1
S1130C300AC0292F2660B22E06C028E030E005C085
S1130C4020E130E002C020E132E0F801B7FE07C045
S1130C5060817181828193810C5F1F4F06C0608126
S1130C60718180E090E00E5F1F4FA3010E941A077C
S1130C70882E8618FB2DFF773F2E36FE0DC0232DC0
S1130C802E7FA22E891458F434FE0BC032FC09C006
S1130C90832D8E7EA82E05C0B82CA32C03C0B82C9F
S1130CA001C0B92CA4FE0FC0FE01E80DF11D808126
S1130CB0803321F49A2D997EA92E09C0A2FE06C084
S1130CC0B394B39404C08A2D867809F0B394A3FC3A
S1130CD011C0A0FE06C0B21488F4280C922C9B18F4
S1130CE00EC0B21460F4B60180E290E00E94DE0609
S1130CF0B394F7CFB21418F42B1802C0982C212CFB
S1130D00A4FE10C0B60180E390E00E94DE06A2FEBD
S1130D1017C0A1FC03C088E790E002C088E590E01A
S1130D20B6010CC08A2D867859F0A1FE02C08BE270
S1130D3001C080E2A7FC8DE2B60190E00E94DE06CD
S1130D40891438F4B60180E390E00E94DE069A9498
S1130D50F7CF8A94F301E80DF11D8081B60190E08C
S1130D600E94DE068110F5CF222009F442CEB6019E
S1130D7080E290E00E94DE062A94F6CFF601868196
S1130D80978102C08FEF9FEF2B96E2E10C94AA07A4
S1130D90FC010590615070400110D8F78095909542
S1130DA08E0F9F1F0895FC01615070400190011047
S1130DB0D8F7809590958E0F9F1F08950F931F93DA
S1130DC0CF93DF93FB01238121FD03C08FEF9FEFBE
S1130DD02CC022FF16C046815781248135814217D9
S1130DE0530744F4A081B1819D012F5F3F4F3183AC
S1130DF020838C93268137812F5F3F4F378326834F
S1130E0014C08B01EC01FB010084F185E02D0995F0
S1130E10892BE1F6D80116968D919C91179701962E
S1130E2017969C938E931697CE01DF91CF911F91C5
S1130E300F910895FA01AA27283051F1203181F148
S1130E40E8946F936E7F6E5F7F4F8F4F9F4FAF4FCE
S1130E50B1E03ED0B4E03CD0670F781F891F9A1FE1
S1130E60A11D680F791F8A1F911DA11D6A0F711D95
S1130E70811D911DA11D20D009F468943F912AE0A1
S1130E80269F11243019305D3193DEF6CF01089589
S1130E90462F4770405D4193B3E00FD0C9F7F6CFBA
S1130EA0462F4F70405D4A3318F0495D31FD405282
S1130EB0419302D0A9F7EACFB4E0A6959795879518
S1130EC077956795BA95C9F70097610571050895F7
S1130ED09B01AC010A2E06945795479537952795A3
S1130EE0BA95C9F7620F731F841F951FA01D08953B
S1130EF0F999FECF92BD81BDF89A992780B50895DE
S1130F00262FF999FECF1FBA92BD81BD20BD0FB621
S1130F10F894FA9AF99A0FBE019608952F923F9287
S1130F204F925F926F927F928F929F92AF92BF92F5
S1130F30CF92DF92EF92FF920F931F93CF93DF93A1
S1130F40CDB7DEB7CA1BDB0B0FB6F894DEBF0FBEFE
S1130F50CDBF09942A88398848885F846E847D844B
S1130F608C849B84AA84B984C884DF80EE80FD804D
S1130F700C811B81AA81B981CE0FD11D0FB6F894C3
S1110F80DEBF0FBECDBFED010895F894FFCF84
S9030000FC
