:100000000C9454000C9466000C9466000C946600EA
:100010000C9466000C9466000C9466000C946600C8
:100020000C9466000C9466000C9466000C946600B8
:100030000C9466000C9466000C9466000C946600A8
:100040000C9466000C9466000C9415040C94B10397
:100050000C94BB030C9466000C9466000C94660030
:100060000C9466000C9466006B006572722D636DD3
:100070006424006572722D6765746E6F70726F70A4
:1000800024006725732400673078253032782400F7
:100090006572722D62616461646472007465737468
:1000A000696E67202564240011241FBECFEFD8E0BD
:1000B000DEBFCDBF27E0A0E0B1E001C01D92A438B3
:1000C000B207E1F70E94DF020C949F070C94000036
:1000D000FC018FB7F8947183608353834283178246
:1000E0001682158214828FBF0895FC01362F2FB718
:1000F000F89484819581628173818617970718F03F
:100100002FBF8FEF089546815781840F951F0E945E
:100110005704A081B181A80FB91F3C9384819581B8
:100120000196958384832FBF80E00895AB012FB79C
:10013000F894FC01158214822FBF60E070E080818A
:1001400091810C9489040F931F93CF93C82F8091B2
:10015000C701811117C0C13209F442C0C43251F441
:1001600080918301882331F08FEF8093C801109232
:1001700083015D9880918301811121C0CF911F91EE
:100180000F9108951092C7018091C601C81761F0C0
:10019000C111F4CF5D9A8FEF8093C90180938301E1
:1001A000CF911F910F9108955D9A80911A0281114C
:1001B0001FC08FEF80938301CC2361F3DFCF6C2FBF
:1001C0008FE697E00E9475008111D8CF8091820759
:1001D0009091830701969093830780938207CECFF7
:1001E0008FEF8093C70180918301882339F2E7CF95
:1001F0008FEF8093C501109284018093C901809193
:10020000C9010AEC11E0811122C08091CA01882342
:1002100071F1F80101900020E9F73197BF016A5CA4
:100220007140FB01E753FE4F8081843261F06F34EF
:10023000710548F4FB01E653FE4F84E290E09183A0
:1002400080836F5F7F4F8AEC91E00E946D0380E5B1
:10025000F80111928A95E9F760E470E08FE697E083
:100260000E9496001092C90110921A02A2CF88E64D
:1002700090E09F938F931F930F930E949F040F9082
:100280000F900F900F90C5CF1092C8011092C70128
:10029000109283011092C9011092C501109284013D
:1002A00083EA90E00E94650380E090E00E9452079C
:1002B0008093C601882331F081E090E00E945207CC
:1002C000853A59F081E38093C60161E380E090E0D4
:1002D0000E945A07809100018111089565EA81E02A
:1002E00090E00E945A078FEF80930001089580E00C
:1002F00090E00C945207811102C081E00895682FAC
:100300008093C60180E090E00E945A0780E0089543
:100310009091C80181E0911101C080E0819508951C
:100320008FEF80931A021092C8010895CF93DF9344
:100330008091C901882321F0809184018823E1F113
:1003400010928401CAECD1E08091CA01882339F16E
:10035000FE0101900020E9F73197BF016A5C71400E
:10036000FB01E753FE4F8081843219F06F34710531
:1003700030F18AEC91E00E946D0380E5FE0111925C
:100380008A95E9F760E470E08FE697E00E949600B6
:100390001092C90110921A02DF91CF91089588E658
:1003A00090E09F938F93DF93CF930E949F040F90D1
:1003B0000F900F900F90CCCFCAECD1E0DECFFB01B5
:1003C000E653FE4F84E290E0918380836F5F7F4F1E
:1003D000D0CFDC01ED91FC911197808180538A3060
:1003E00068F49F012F5F3F4FF90111963C932E93C4
:1003F00090812F5F3F4F90539A30B0F308958FEF65
:100400008093840108953F924F925F926F927F9202
:100410008F929F92AF92BF92CF92DF92EF92FF9214
:100420000F931F93CF93DF9300D0CDB7DEB70E9419
:100430006A03FC019081818199838A83E92FF82FD7
:100440008AECE82E81E0F82E9AE6C92E90E0D92EAB
:1004500026E4822E27E0922E32E8A32E30E0B32E3F
:1004600043E7642E40E0742E57E8452E50E0552EA9
:100470008081882371F19F012F5F3F4F3A83298349
:100480009081913609F46CC00CF046C0923409F4A6
:1004900053C0973409F045C0CF0102969A838983EF
:1004A0008181823451F10CF467C0813609F467C050
:1004B000823619F17F926F92FF92EF920E949F0411
:1004C0000F900F900F900F90E981FA818081811138
:1004D000D2CF0F900F90DF91CF911F910F91FF908E
:1004E000EF90DF90CF90BF90AF909F908F907F90D4
:1004F0006F905F904F903F9008959F928F92BF9220
:10050000AF92FF92EF920E949F040F900F900F9076
:100510000F900F900F90D8CF923671F0973609F464
:10052000BBCFDF92CF92FF92EF920E949F040F9079
:100530000F900F900F90C8CF3FB6F89409811A81A1
:10054000B80186E497E00E949004F8010190002031
:10055000E9F78F01015011091A8309833FBEB4CF17
:10056000C9010E946B040E947B0181111BC0CE0156
:1005700001960E94E901A8CF813409F09BCF0E9427
:1005800077011F928F935F924F92FF92EF920E949A
:100590009F040E94FF010F900F900F900F900F90FB
:1005A0000F9092CF80E990E09F938F93FF92EF920C
:1005B0000E949F040F900F900F900F90D8CF539AE6
:1005C000549A559A569A579A5D9A2FEF81EE94E075
:1005D000215080409040E1F700C000005D985E9A95
:1005E0002FEF81EE94E0215080409040E1F700C071
:1005F00000005E985F9A2FEF81EE94E021508040DA
:100600009040E1F700C000005F980E943A030E940A
:10061000440178941F9281E38F938CE990E09F933B
:100620008F93CAECD1E0DF93CF930E949F0409908F
:100630000020E9F72197BE016A5C71408AEC91E0E5
:100640000E946D030F900F900F900F900F900F90DE
:100650000E948801811105C05F980E94880188234B
:10066000D9F35F9A0E9490010E9403020E949601B2
:100670005F98F3CFCF93CFB7F89440E450E063E4B2
:1006800071E08FE697E00E94680040E450E063E08C
:1006900071E08AE797E00E946800109202011092D0
:1006A000010188ED8093C10083E38093C400109220
:1006B000C5008FEF80936E07109277071092830723
:1006C00010928207CFBFCF9108959093020180933B
:1006D000010108958FE697E00895FF920F931F930D
:1006E000CF93DF93FC0190916E079923E1F3209162
:1006F0007E0730917F07260F371F80917C079091EE
:100700007D072817390730F56115710519F1EF01DB
:100710002196F0806130710559F08F01060F171F87
:1007200069918AE797E00E947500C017D107C1F769
:100730008FEF8093770780916E078823E1F3F09223
:10074000C60010926E078FEFDF91CF911F910F912E
:10075000FF90089580E0DF91CF911F910F91FF905E
:1007600008951F920F920FB60F9211240F900FBE93
:100770000F901F9018951F920F920FB60F92112491
:100780002F933F934F935F938F939F93EF93FF9399
:1007900080917707882399F120917E0730917F0718
:1007A00021153105E1F11092790780918007909130
:1007B0008107E0917A07F0917B07E80FF91F4081EC
:1007C0004093790701969093810780938007409129
:1007D0007C0750917D078417950730F0841B950B9B
:1007E00090938107809380072150310930937F07D0
:1007F00020937E07809179078093C60003C08FEF16
:1008000080936E07FF91EF919F918F915F914F9130
:100810003F912F910F900FBE0F901F90189510923F
:1008200077078FEF80936E07EDCF1F920F920FB671
:100830000F9211242F933F934F935F936F937F9366
:100840008F939F93AF93BF93EF93FF938091C600D5
:100850002091010130910201232BC1F05E9AE091B9
:100860000101F091020109955E98FF91EF91BF910E
:10087000AF919F918F917F916F915F914F913F9138
:100880002F910F900FBE0F901F901895682F8FE635
:1008900097E00E9475008111E8CF809182079091C6
:1008A000830701969093830780938207DECFAA1B6C
:1008B000BB1B51E107C0AA1FBB1FA617B70710F04B
:1008C000A61BB70B881F991F5A95A9F7809590957D
:1008D000BC01CD010895FC0188279927E894219156
:1008E0002032E9F3293010F02E30C8F32B3241F0DA
:1008F0002D3239F4689404C00E949704820F911D30
:10090000219120532A30C0F31EF4909581959F4F7A
:100910000895DC0101C06D9341505040E0F7089507
:10092000FB01DC0101900D920020E1F708957AE0CF
:10093000979F902D879F802D910D11240895AEE0F3
:10094000B0E0E5EAF4E00C9476070D891E898EE0AC
:100950008C831A8309838FEF9FE79E838D83AE017B
:10096000475E5F4F6F89788DCE0101960E94C1046A
:10097000EF81F885E00FF11F10822E96E4E00C94D1
:100980009207ABE0B0E0E7ECF4E00C9468076C0190
:100990007B018A01FC0117821682838181FFCCC111
:1009A000CE0101963C01F6019381F70193FD8591FB
:1009B00093FF81917F01882309F4BAC1853239F40C
:1009C00093FD859193FF81917F01853229F4B601D2
:1009D00090E00E94B806E7CF912C212C312CFFE14A
:1009E000F315D8F08B3279F038F4803279F0833215
:1009F000A1F4232D20611DC08D3261F0803369F494
:100A0000232D216016C0832D8260382EE32DE460F3
:100A10003E2E2AC0F32DF8601DC037FC2DC020EDFE
:100A2000280F2A3040F08E32B9F436FC81C1232DD4
:100A30002064322E19C036FE06C08AE0989E200D32
:100A40001124922E11C0EAE02E9E200D1124222E98
:100A5000F32DF0623F2E08C08C3621F4832D806880
:100A6000382E02C0883641F4F70193FD859193FF3B
:100A700081917F018111B3CF982F9F7D9554933041
:100A800028F40C5F1F4F9FE399830DC0833631F02C
:100A9000833771F0833509F059C021C0F801808196
:100AA00089830E5F1F4F88248394912C530113C0B8
:100AB0002801F2E04F0E511CF801A080B18036FEF3
:100AC00003C0692D70E002C06FEF7FEFC5010E9487
:100AD000AD064C018201F32DFF773F2E16C0280191
:100AE00022E0420E511CF801A080B18036FE03C006
:100AF000692D70E002C06FEF7FEFC5010E94A20672
:100B00004C01F32DF0683F2E820133FC1BC0822D77
:100B100090E088169906B0F4B60180E290E00E9459
:100B2000B8062A94F4CFF50137FC859137FE819100
:100B30005F01B60190E00E94B80621102A9421E0DE
:100B4000821A91088114910471F7E8C0843611F07B
:100B5000893641F5F80137FE07C0608171818281D5
:100B600093810C5F1F4F08C060817181072E000CBC
:100B7000880B990B0E5F1F4FF32DFF763F2E97FFCB
:100B800009C090958095709561957F4F8F4F9F4FCD
:100B9000F0683F2E2AE030E0A3010E94F406882E80
:100BA000861845C0853731F4232D2F7EB22E2AE0DA
:100BB00030E025C0932D997FB92E8F36C1F018F4FF
:100BC000883579F0B5C0803719F0883721F0B0C08A
:100BD000E92FE061BE2EB4FE0DC0FB2DF460BF2EE8
:100BE00009C034FE0AC0292F2660B22E06C028E0B4
:100BF00030E005C020E130E002C020E132E0F80141
:100C0000B7FE07C060817181828193810C5F1F4FA5
:100C100006C06081718180E090E00E5F1F4FA301EC
:100C20000E94F406882E8618FB2DFF773F2E36FE95
:100C30000DC0232D2E7FA22E891458F434FE0BC034
:100C400032FC09C0832D8E7EA82E05C0B82CA32CA3
:100C500003C0B82C01C0B92CA4FE0FC0FE01E80DE2
:100C6000F11D8081803321F49A2D997EA92E09C02F
:100C7000A2FE06C0B394B39404C08A2D867809F00E
:100C8000B394A3FC11C0A0FE06C0B21488F4280CD3
:100C9000922C9B180EC0B21460F4B60180E290E072
:100CA0000E94B806B394F7CFB21418F42B1802C000
:100CB000982C212CA4FE10C0B60180E390E00E9485
:100CC000B806A2FE17C0A1FC03C088E790E002C0EE
:100CD00088E590E0B6010CC08A2D867859F0A1FE17
:100CE00002C08BE201C080E2A7FC8DE2B60190E079
:100CF0000E94B806891438F4B60180E390E00E949F
:100D0000B8069A94F7CF8A94F301E80DF11D80811B
:100D1000B60190E00E94B8068110F5CF222009F4B8
:100D200042CEB60180E290E00E94B8062A94F6CF47
:100D3000F6018681978102C08FEF9FEF2B96E2E14B
:100D40000C948407FC010590615070400110D8F7A5
:100D5000809590958E0F9F1F0895FC016150704003
:100D600001900110D8F7809590958E0F9F1F0895E0
:100D70000F931F93CF93DF93FB01238121FD03C0CA
:100D80008FEF9FEF2CC022FF16C046815781248130
:100D900035814217530744F4A081B1819D012F5F33
:100DA0003F4F318320838C93268137812F5F3F4FC4
:100DB0003783268314C08B01EC01FB010084F1858D
:100DC000E02D0995892BE1F6D80116968D919C911D
:100DD0001797019617969C938E931697CE01DF91E5
:100DE000CF911F910F910895FA01AA27283051F150
:100DF000203181F1E8946F936E7F6E5F7F4F8F4F4C
:100E00009F4FAF4FB1E03ED0B4E03CD0670F781FAA
:100E1000891F9A1FA11D680F791F8A1F911DA11D8F
:100E20006A0F711D811D911DA11D20D009F46894C8
:100E30003F912AE0269F11243019305D3193DEF670
:100E4000CF010895462F4770405D4193B3E00FD026
:100E5000C9F7F6CF462F4F70405D4A3318F0495D11
:100E600031FD4052419302D0A9F7EACFB4E0A695F4
:100E70009795879577956795BA95C9F70097610516
:100E8000710508959B01AC010A2E0694579547956C
:100E900037952795BA95C9F7620F731F841F951F61
:100EA000A01D0895F999FECF92BD81BDF89A9927AA
:100EB00080B50895262FF999FECF1FBA92BD81BD46
:100EC00020BD0FB6F894FA9AF99A0FBE01960895CC
:100ED0002F923F924F925F926F927F928F929F924A
:100EE000AF92BF92CF92DF92EF92FF920F931F9338
:100EF000CF93DF93CDB7DEB7CA1BDB0B0FB6F894E9
:100F0000DEBF0FBECDBF09942A88398848885F8428
:100F10006E847D848C849B84AA84B984C884DF8099
:100F2000EE80FD800C811B81AA81B981CE0FD11D7D
:100F30000FB6F894DEBF0FBECDBFED010895F89453
:020F4000FFCFE1
:00000001FF
