S00D000043417070312E7372656382
S11300000C9434000C943E000C943E000C943E007E
S11300100C943E000C943E000C943E000C943E0064
S11300200C943E000C943E000C943E000C943E0054
S11300300C943E000C943E000C943E000C943E0044
S11300400C943E000C943E000C943E000C943E0034
S11300500C943E000C943E000C943E000C943E0024
S11300600C943E000C943E0011241FBECFEFD8E048
S1130070DEBFCDBF0E9440000C9462000C940000CF
S1130080529A20E080E090E0422F50E084179507D8
S113009034F435E03A95F1F700000196F7CF5A9819
S11300A040E050E081E0820F90E0481759073CF4AB
S11300B035E03A95F1F700004F5F5F4FF6CF5A9A5B
S10B00C02E5FE0CFF894FFCF9E
S9030000FC
