S01900005753323831324C45445F53414D504C45312E737265636D
S11300000C943B000C9460010C944D000C944D0036
S11300100C944D000C944D000C944D000C944D0028
S11300200C944D000C944D000C944D000C944D0018
S11300300C944D000C944D000C944D000C944D0008
S11300400C944D000C944D000C944D000C944D00F8
S11300500C944D000C944D000C944D000C944D00E8
S11300600C944D000C944D00C000C800D600E6006E
S1130070F7000901190111241FBECFEFD8E0DEBF3C
S1130080CDBF21E0A0E0B1E001C01D92A130B207D4
S1130090E1F70E946F010C94D4010C940000DC0180
S11300A0CB016FB7F8944BB148605BB1577F37E031
S11300B02D914BB90000220F000068F000005BB9DD
S11300C000000000000027FB00003150000069F030
S11300D00000EFCF00000000000027FB00003150BB
S11300E000005BB9000029F7000037E000004BB9BD
S11300F000007EF00000000000005BB900002D91BC
S1130100000001970000A9F600006FBF789400007A
S113011008952D910000019700005BB9000049F695
S113012000006FBF78940895CF92DF92EF92FF9210
S11301300F931F93CF93DF93CDB7DEB76E970FB6B0
S1130140F894DEBF0FBECDBF10E0D12CE12CF12C12
S113015042E3C42E809100018111A3C06EE170E0DE
S1130160CE0101960E944F008D2D90E087309105BD
S113017008F08FC0FC01EC5CFF4F1F5F0C94CE01B4
S1130180133308F06CC0012F212F412F6E2D62C054
S1130190133318F400E020E016C08DE1E816F104F2
S11301A00CF061C093E0E90EF11C72C0133308F047
S11301B05FC000E0212F4C2D411B6E2DCE01019616
S11301C00E94C201212F40E061E043C0133308F0D4
S11301D053C0012F2C2D211B40E061E06E0DCE0198
S11301E001960E94C20120E040E062E032C0133375
S11301F008F046C00C2D011B20E0412F62E06E0D7B
S1130200CE0101960E94C20100E0212F412F63E03C
S113021020C01333C8F5012F4C2D411B242F63E05C
S11302206E0DCE0101960E94C20120E0412F64E0D0
S113023010C0133368F54C2D411B042F212F64E0AB
S11302406E0DCE0101960E94C201012F212F40E0C4
S113025065E06E0DCE0101960E94C2011BC010E044
S1130260DD24D39417C010E0D12CE12CF12C12C062
S113027010E033E0D32E0EC010E024E0D22E0AC0EA
S113028010E095E0D92E06C010E086E0D82E02C01A
S113029010E0D12C8FE99FE00197F1F700C0000036
S11302A059CF6E960FB6F894DEBF0FBECDBFDF9167
S11302B0CF911F910F91FF90EF90DF90CF90089511
S11302C01F920F920FB60F9211248F9381E08093A7
S11302D000018F910F900FBE0F901F901895CF9330
S11302E0DF93CDB7DEB76E970FB6F894DEBF0FBEBF
S11302F0CDBF52985A9A80916900816080936900B9
S1130300E89A7894539ACE0101967C018EE1F70124
S113031011928A95E9F76EE170E0C7010E944F00DF
S113032001E010E0109200016EE170E0C7010E944C
S11303304F0002301105D1F003301105E1F0013016
S1130340110581F78091000181110DC000E020E0CA
S113035044E661E0C7010E94C2016EE170E0C7019A
S11303600E944F00EFCF02E010E0DCCF0E94940027
S113037003E010E0D7CF809100018823E1F300E08F
S113038010E0D0CF0F93FC0133E0639FE00DF11D2B
S113039011242083418302830F910895EE0FFF1FE0
S10F03A00590F491E02D0994F894FFCF2F
S9030000FC
