S013000050432D323831322D4C45442E7372656382
S11300000C9434000C9491000C9446000C9446001B
S11300100C9446000C9446000C9446000C94460044
S11300200C9446000C9446000C9446000C94460034
S11300300C9446000C9446000C9446000C94460024
S11300400C9446000C9446000C9446000C94460014
S11300500C9446000C9446000C9446000C94460004
S11300600C9446000C94460011241FBECFEFD8E038
S1130070DEBFCDBF21E0A0E0B1E001C01D92AF33EF
S1130080B207E1F70E949B000C9434010C94000029
S1130090DC01CB016FB7F89448B100004460000064
S11300A058B100005B7F000037E000002D91000094
S11300B048B90000220F000068F0000058B90000A1
S11300C00000000027FB00003150000069F0000030
S11300D0EFCF00000000000027FB000031500000BB
S11300E058B9000029F7000037E0000048B90000C3
S11300F076F000000000000058B900002D910000C7
S113010001970000A9F600006FBF000008952D912B
S113011000000197000058B9000051F600006FBFBD
S113012008951F920F920FB60F9211240F900FBED5
S11301300F901F9018953A9ABB24B394CC24C3947F
S1130140AA24A394E12CD12CFF24FA94CFE3D1E088
S1130150812C6894992491F80CE310E0A3E0B1E0B9
S1130160FD011192CE17DF07E1F78FEFE81204C00B
S1130170D1106BC0A92C69C0E11067C09FEFD912E0
S113018060C05EC0F11058C08FEFE81201C0C82CE7
S11301909FEFD91203C0FF2009F45BC08FEFF81260
S11301A04BC0DD2009F45BC05BC0B92CF39404C0E0
S11301B0A11002C0F110FA9492E0C91205C08FEFA9
S11301C0D81631F0D39404C0C11002C0D110DA940F
S11301D092E0B91205C08FEFE81631F0E39404C041
S11301E0B11002C0E110EA942F2D269526959D2D7D
S11301F09695969596958E2D8695869586959C933F
S113020011962C93119712968C9312971396AC1700
S1130210BD07A9F71093020100930101B80183E01F
S113022091E00E9448008FE39CE90197F1F700C038
S1130230000094CFC92CACCF92E0A912B9CFB6CFAD
S1130240A82C8FEFF8129ECFF5CF9FEFF9129ACF1B
S11302509FCF82E0A81609F4A8CFB92CA9CFB82C57
S10F026092E0A912A5CFA8CFF894FFCF1C
S9030000FC
