:100000000C9434000C9429010C9446000C94460086
:100010000C9446000C9446000C9446000C94460048
:100020000C9446000C9446000C9446000C94460038
:100030000C9446000C9446000C9446000C94460028
:100040000C9446000C9446000C9446000C94460018
:100050000C9446000C9446000C9446000C94460008
:100060000C9446000C94460011241FBECFEFD8E03C
:10007000DEBFCDBF21E0A0E0B1E001C01D92A13004
:10008000B207E1F70E9438010C9496010C9400002D
:10009000DC01CB016FB7F8944BB148605BB1577F7F
:1000A00037E02D914BB90000220F000068F00000EE
:1000B0005BB900000000000027FB00003150000089
:1000C00069F00000EFCF00000000000027FB0000F7
:1000D000315000005BB9000029F7000037E0000054
:1000E0004BB900007EF00000000000005BB900008A
:1000F0002D91000001970000A9F600006FBF7894D1
:10010000000008952D910000019700005BB90000E8
:1001100049F600006FBF78940895DF92EF92FF9246
:100120000F931F93CF93DF93CDB7DEB76E970FB6C4
:10013000F894DEBF0FBECDBF80910001811162C077
:100140006EE170E0CE0101960E94480010E0E12CC3
:10015000F12C1F5F133390F18FE99FE00197F1F7C6
:1001600000C000008091000181114CC06EE170E080
:10017000CE0101960E94480013E3DD24D394DE0CE7
:10018000115009F04DC09DE1E916F10484F593E0AA
:10019000E90EF11C8FE99FE00197F1F700C0000024
:1001A0008091000181112EC06EE170E0CE010196B8
:1001B0000E94480010E01F5F133370F6012F212FBB
:1001C000412F6E2DCE0101960E9487018FE99FE09D
:1001D0000197F1F700C0000080910001811112C069
:1001E0006EE170E0CE0101960E944800B2CF8FE927
:1001F0009FE00197F1F700C0000080910001882383
:1002000009F49ECF6E960FB6F894DEBF0FBECDBF39
:10021000DF91CF911F910F91FF90EF90DF900895A4
:1002200000E020E040E06D2DCE0101960E948701A4
:100230008FE99FE00197F1F700C000008091000175
:100240008111E0CF6EE170E0CE0101960E9448007E
:1002500097CF1F920F920FB60F9211248F938FEFAB
:10026000809300018F910F900FBE0F901F901895F3
:10027000CF93DF93CDB7DEB76E970FB6F894DEBF9E
:100280000FBECDBF52985A9A8091690081608093C9
:100290006900E89A7894539ACE0101967C018EE128
:1002A000F70111928A95E9F76EE170E0C7010E94AB
:1002B000480081E090E010920001029771F40E94E2
:1002C0008D0010920001809100018823E1F381E00C
:1002D00090E010920001029791F38091000181114A
:1002E00013C000E020E044E661E0C7010E948701FE
:1002F0006EE170E0C7010E944800809100018823F0
:1003000081F382E090E0D7CF10920001D8CF0F9315
:1003100070E0FB01EE0FFF1F6E0F7F1FFC01E60F69
:10032000F71F2083418302830F910895F894FFCF34
:00000001FF
