S00F00004C4544535452312E7372656316
S11300000C94D8140C9492150C94EA140C94EA14DD
S11300100C94EA140C94EA140C94EA140C94EA1464
S11300200C94EA140C94EA140C94EA140C94EA1454
S11300300C94EA140C94EA140C94EA140C94EA1444
S11300400C94EA140C94EA140C94EA140C94EA1434
S11300500C94EA140C94EA140C94EA140C94EA1424
S11300600C94EA140C94EA14E4E7FFE3E7FFE0E4F9
S1130070FFE1E5FFE2E6FFE4E7FFE6EAFFE7EBFF87
S1130080E3E7FFDFE2FFE1E5FFE1E4FFD6DAFFCDDE
S1130090D0FFC7CAFFC4C7FFE0E4FFDFE2FFD7DB3E
S11300A0FFDEE2FFDCDFFFC7C9FFC0C3FFC1C4FF3F
S11300B0C8CBFFD2D6FFE8EBFFF5F9FFFAFEFFFB52
S11300C0FEFFF8FCFFE8ECFFDFE2FFF9FDFFF7FBC2
S11300D0FFF7FBFFF6FAFFF2F6FFF3F7FFE3E7FFA4
S11300E0F0F4FFD5D9FFE6E9FFECF0FFEFF2FFF102
S11300F0F5FFEEF2FFEDF1FFECF0FFE6EAFFB9BC2D
S1130100FFBBBEFFBDC0FFAAACFFB8BAFFC6C9FFA4
S1130110DADDFFDBDFFFD8DCFFE6EAFFE0E4FFDC4B
S1130120DFFFD0D3FFB5B9FFA9ACFFE5E8FFD4D812
S1130130FFB4B7FFD3D6FF9EA0FF4B4DFF6F71FFF7
S1130140A4A7FFA0A2FF7F81FF9D9FFFBCBFFFD29A
S1130150D5FFDFE3FFC6C9FFEDF1FFEDF1FFB2B458
S1130160FF4D4EFF2122FF0505FF3C3DFF7E80FF32
S1130170AAADFFD6D9FFFAFEFFF6FAFFEFF3FFF7B9
S1130180FBFFF7FBFFFAFEFFFBFFFFF5F9FFE2E6DB
S1130190FFDBDEFFE2E5FFEBEFFFE9EDFFE8ECFF5D
S11301A0F5F9FFBDC0FFABAEFFAFB2FFBFC2FFB2F8
S11301B0B4FF0A0AFF114378114378114378000011
S11301C0FF0000FF0000FF0000FF0000FF0000FF31
S11301D00000FF4344FFC0C3FFD0D3FFCED1FFDEF6
S11301E0E2FFB4B7FF7476FF3435FF1010FFA0A20E
S11301F0FFAFB1FF2627FF0101FF5658FF787AFFB2
S11302007B7DFF989BFF3334FF3D3EFF2A2BFF1776
S113021018FF1B1BFF3233FFD9DCFF2627FF2526DF
S1130220FF2122FF0E0EFF0000FF0000FF114378A4
S11302301143781143780000FF0000FF0000FF57CE
S113024059FFF4F8FF0000FF0000FF0000FF00006A
S1130250FF2728FF2728FF1414FF0000FF0000FFDA
S11302600000FF5657FF7A7CFF0000FF0000FF00EC
S113027000FF0202FF4648FF8283FF2425FF040497
S1130280FF0000FF4A4BFFF4F8FF0000FF0000FFEF
S11302900000FF0000FF0000FF0000FF0000FF005F
S11302A000FF0000FF1143781143781143780000E8
S11302B0FF0000FF0000FF1212FF5759FF0000FF6C
S11302C00000FF0000FF0000FF0000FF0000FF002F
S11302D000FF0000FF0000FF0000FF1111FF1E1EC1
S11302E0FF8385FF3B3CFF0000FF1E1EFF5253FFB0
S11302F09C9EFFB5B8FF0000FF0000FF0000FF0058
S113030000FF0000FF0000FF0000FF0000FF0000EE
S1130310FF00EC0100EF0100EF0000FE0000BD0251
S11303200C4E541143780000FF0000FF0000FF0052
S113033000FF0000FF0000FF0000FF0000FF0000BE
S1130340FF3334FF9D9FFF0000FF0000FF0000FF0C
S11303500000FF292AFF0B0BFFC3C6FF8183FF07A1
S113036007FF4040FF4546FFDADEFFA6A8FF272827
S1130370FF1314FF0000FF0000FF0000FF0000FF58
S11303800000FF0000FF0000FF0000FE00F8000076
S1130390E20100D50200D40100DD0100B60200969E
S11303A00300C5020009E80007ED0000FF0000FF9C
S11303B00000FF0000FF0000FF0A0AFF1F1FFF00EC
S11303C000FF0000FF0000FF0707FFDEE2FF000060
S11303D0FF292AFF3536FF1011FF1414FF6B6DFF40
S11303E04B4CFF292AFF1717FF1D1EFF0000FF00BB
S11303F000FF0000FF0000FF0000FF0000FF0000FE
S1130400FF0000FF00FF0023FF246BFC6D00EA00E7
S113041000D401009F03009A0200BF0200C302003F
S1130420B3020000FF0000FF0000FF0000FF000017
S1130430FF0000FF0000FF0000FF1515FF3F40FF15
S11304400C0CFF9193FF0000FF0000FF0000FF0071
S113045000FF0303FF1516FF2727FF3C3DFF1E1E69
S1130460FF1717FF0000FF0000FF0000FF0000FF60
S11304700000FF0000FF0000FF0702FD0502FD1A57
S1130480FF1A4EFF4F00FF0000DE0100E20000D61D
S11304900100B50100C901000DE10000FF0000FFEB
S11304A00000FF0000FFE89600E89600E89600E8E8
S11304B096002829FF7C7EFF0000FF0000FF00005B
S11304C0FFE89600E896000000FF0A0AFF3536FFB1
S11304D03C3DFF6365FFE89600E89600E89600E877
S11304E09600E896000000FF0000FF0000FFE89679
S11304F0000301FE0301FE00FF0000FF0000FF00F7
S113050000F3000BE60B4EB552000DDF0005F000C2
S113051000FF0000FF4345FF0000FF0000FFE896D6
S113052000E89600E89600E89600E896000000FFD0
S11305300000FF0000FFE89600E89600E89600E857
S11305409600E896003738FF2728FFE3940CE896D6
S113055000E89600E89600E89600E89600E8960021
S11305600000FFE89600E89600E8960000FF00000F
S1130570FF0000FF0000FF0000F70004E2061CA0DB
S11305801F009D0300E0010000FF0000FFABAEFF71
S11305900000FF0000FFE896000000FF0000FFE8F5
S11305A09600E896000000FF0000FF0000FF000036
S11305B0FF0000FF0000FFE89600E896000000FF3F
S11305C00000FF0000FF0000FF0000FF0000FFE844
S11305D09600E89600E896000000FF0000FFE89609
S11305E0000000FF00FF000BFF0B87FF8900FF00E6
S11305F000F90000E30100F40000F5000006F1003A
S113060000FF0000FF0000FF0000FFE89600E896EE
S1130610000000FF0000FF0000FFE896000000FF5C
S11306200000FFEBEEFFAAADFF0000FF0000FF009B
S113063000FFE89600E896000000FF0000FF0000BD
S1130640FF0000FF0000FF0000FFE89600E89600AE
S11306500000FF0000FF0000FF0000FF0000FF0893
S1130660FF085EFF6000FF0000FB0000E60100EEF3
S1130670000008EB0000FF0000FF0000FF0000FF87
S11306800000FFE89600E896000000FF0000FF006D
S113069000FFE89600E896000000FF8183FF494AC6
S11306A0FF0000FF0000FFE89600E89600E89600CF
S11306B00000FF0000FF0000FF0000FFE89600E8D4
S11306C09600E896000000FF0000FF0000FFE89697
S11306D0000000FF0000FF0000FF00FF0000FF001B
S11306E00DFE0D5AC05D0001FD0000FF0000FF007B
S11306F000FF0000FF0000FF0000FFE89600E896FE
S1130700000000FF0000FF0000FFE89600E89600EC
S11307100000FF0000FF0000FFE89600E89600E8F4
S11307209600E896000000FF0000FF0000FF0000B4
S1130730FFE89600E89600E896000000FF0000FF3E
S11307400000FF0000FFE896000000FF0000FF002B
S1130750FF0000FF0000FF0006FF0619991C00FEC1
S1130760000000FF0000FF0000FF0000FF0000FF8A
S11307700000FFE89600E896000000FF0000FF007C
S113078000FFE89600E896000000FF0000FFE896EE
S113079000E896000000FF0000FF0000FF0000FFDB
S11307A00000FF0000FFE89600E89600E8960000CD
S11307B000FF0000FF0000FF0000FFE89600E8963D
S11307C000E896000000FF00FF0006FF064DFF4E04
S11307D000FF0000FF000000FF0000FF0000FFBC5E
S11307E0BFFFBCBFFF0000FF0000FFE89600E896D3
S11307F0000000FF0000FF0000FFE89600E89600FC
S11308000000FF0000FFE89600E896000000FF00EB
S113081000FF0000FF0000FF0000FF2121FFECA902
S113082030E89600E896000000FF0000FF0000FF9B
S11308300000FFE89600E89600E896000000FF003C
S113084000FF0DFF0D99FF9B00FF0000FF0000005B
S1130850FF0000FF0000FF0000FF0000FF0000FF9A
S11308600000FFE89600E896000000FF0000FFE8A3
S11308709600E896000000FF0000FF0000FFE896E5
S113088000E89600E89600E89600E89600E89600EE
S11308900000FF8E90FFF6E3BBE89600E89600E8C0
S11308A09600E89600E896000000FFE89600E896B7
S11308B000E896000000FF0000FF00FE5B00FCE87B
S11308C000FD430000FF0000FF0000FF0000FF00E8
S11308D000FF0000FF0000FF0000FFE8960000009A
S11308E0FF0000FF0000FF0000FF6E70FF2828FFDC
S11308F00000FF0000FF0000FFE89600E89600E813
S11309009600E896000000FF0000FF0000FF0000D2
S1130910FFE89600E89600E896000000FF0000FF5C
S11309200000FF0000FFE896000000FF0000FF0049
S113093000FF00D7FF00FFFF00C9FF0000FF000019
S1130940FF0000FF0000FF0C0CFF4041FF0000FF10
S11309500000FF0000FF0000FF0000FF0000FF0098
S113096000FFBBBEFF4A4BFF0000FF0000FF00007A
S1130970FF0000FF0000FF0000FF0000FF0000FF79
S11309800000FF0000FF0000FF0000FF0000FF0068
S113099000FF0000FF0000FF0000FF0000FF000058
S11309A0FF0000FF8284FF0E0EFF0032FF00B2FF43
S11309B0002BFF0000FF9DA0FF5759FF0000FF3EE2
S11309C03FFFE3E7FF0000FF787AFF9DA0FF0000F0
S11309D0FF0000FF0000FF0000FF0000FF0000FF19
S11309E00000FF0000FF0000FF0000FF0000FF0008
S11309F000FF0000FF0000FF0000FF0000FF0000F8
S1130A00FF0000FF0000FF0000FF9093FF7072FFE3
S1130A100000FF0000FF0000FF0000FFD4D7FF1913
S1130A2019FF0000FF9DA0FF5759FF0000FF7677D4
S1130A30FF4041FF0000FF0000FF0000FF0000FF37
S1130A403F41FF5759FF0000FF0000FF0000FF0077
S1130A5000FF0000FF0000FF0000FF0000FF000097
S1130A60FF0000FF0000FF989AFFE3E6FF0000FF8D
S1130A700000FF0000FF0000FF0000FF0000FF0077
S1130A8000FFD7DAFFB5B9FF0000FF0000FF000048
S1130A90FF0000FF0000FF0000FF0000FF7677FF6B
S1130AA04041FF0000FF0000FF0000FF0000FF00C6
S1130AB000FF0000FF0000FF0000E4E7FFE3E7FFA2
S1130AC0E0E4FFE1E5FFE2E6FFE4E7FFE6EAFFE753
S1130AD0EBFFE3E7FFDFE2FFE1E5FFE1E4FFD6DA66
S1130AE0FFCDD0FFC7CAFFC4C7FFE0E4FFDFE2FFCA
S1130AF0D7DBFFDEE2FFDCDFFFC7C9FFC0C3FFC1F6
S1130B00C4FFC8CBFFD2D6FFE8EBFFF5F9FFFAFE2E
S1130B10FFFBFEFFF8FCFFE8ECFFDFE2FFF9FDFF5F
S1130B20F7FBFFF7FBFFF6FAFFF2F6FFF3F7FFE33D
S1130B30E7FFF0F4FFD5D9FFE6E9FFECF0FFEFF2B1
S1130B40FFF1F5FFEEF2FFEDF1FFECF0FFE6EAFF57
S1130B50B9BCFFBBBEFFBDC0FFAAACFFB8BAFFC69D
S1130B60C9FFDADDFFDBDFFFD8DCFFE6EAFFE0E404
S1130B70FFDCDFFFD0D3FFB5B9FFA9ACFFE5E8FF89
S1130B80D4D8FFB4B7FFD3D6FF9EA0FF4B4DFF6F61
S1130B9071FFA4A7FFA0A2FF7F81FF9D9FFFBDC09F
S1130BA0FFECEEFFF8F9FFCCCEFFEDF1FFEDF1FF26
S1130BB0B2B4FF4D4EFF2122FF0505FF3C3DFF7EF1
S1130BC080FFAAADFFD9DBFFFBFEFFF6FAFFEFF3D0
S1130BD0FFF7FBFFF7FBFFFAFEFFFBFFFFF5F9FF53
S1130BE0E2E6FFDBDEFFE3E6FFEBEFFFE9EDFFE824
S1130BF0ECFFF5F9FFBDC0FFABAEFFAFB2FFBFC264
S1130C00FFB2B4FF0A0AFF11437811437811437805
S1130C100000FF0000FF0606FFC9C9FFE0E0FF2354
S1130C2023FF0000FF4344FFC3C6FFE0E2FFCED131
S1130C30FFDEE2FFB4B7FF7476FF4F50FFEFEFFF24
S1130C40FBFBFFAFB1FF2627FF0101FF7B7DFFD632
S1130C50D7FF9293FF9EA0FF3334FF3D3EFFCACAE5
S1130C60FFD6D6FF4343FF3233FFD9DCFF2627FFED
S1130C702526FF2122FF0E0EFF0000FF0000FF11BA
S1130C8043781143781143780000FF0000FF00000F
S1130C90FF5759FFF4F8FF0000FF0000FF0000FFBA
S1130CA01414FFD6D7FFC5C5FF1414FF0000FF00BE
S1130CB000FF1919FFDDDDFFC0C1FF0000FF0000C8
S1130CC0FF0000FF7D7DFFD4D5FFD5D6FF5B5CFF21
S1130CD00404FF0000FF4A4BFFF4F8FF0101FF008A
S1130CE000FF0000FF0000FF0000FF0000FF000005
S1130CF0FF0000FF0000FF1143781143781143788F
S1130D000000FF0000FF0000FF1212FF5759FF0010
S1130D1000FF0000FF0000FF0000FF4747FFFFFF48
S1130D20FF0000FF2121FFFEFEFF0000FF4242FF03
S1130D302D2DFF4C4DFF2122FF0000FF1E1EFF52F0
S1130D4053FF8284FF6769FF0000FF0000FF00007B
S1130D50FF0000FF0000FF0000FF0000FF0000FF95
S1130D600000FF00EC0100EF0100EF0000FE0000B6
S1130D70BD020C4E541143780000FF0000FF000038
S1130D80FF0000FF0000FF0000FF0000FF0000FF65
S1130D900000FF3334FF9D9FFF0000FF0808FF6839
S1130DA068FF0000FF292AFF0B0BFF1313FF030347
S1130DB0FF0606FF0202FF0202FF0A0AFF1E1EFFD1
S1130DC00B0BFF1213FF0000FF0000FF0000FF00E9
S1130DD000FF0000FF6262FF0303FF0000FE00F853
S1130DE00000E20100D50200D40100DD0100B602DA
S1130DF000960300C5020009E80007ED0000FF4665
S1130E0046FF0000FF0000FF0000FF0A0AFF1F1F4B
S1130E10FF0000FF0000FF0000FF0707FFDEE2FF06
S1130E200000FF2021FF2C2DFF1011FF1212FF3FA5
S1130E3041FF0404FF1E1FFF1515FF1D1EFF0000C8
S1130E40FF0000FF0000FF0000FF0000FFB4B4FF3C
S1130E505F5FFF0000FF00FF0023FF246BFC6D00B9
S1130E60EA0000D401009F034EB94F28C92A00C3E9
S1130E700200B3020909FFAFAFFF0000FF0000FF4B
S1130E800000FF0000FF0000FF0000FF1414FF1229
S1130E9012FF0B0BFF9193FF0000FF0000FF000007
S1130EA0FF0000FF0303FF1516FF2626FF3C3DFF4E
S1130EB01E1EFF1717FF0000FF0000FF0000FF00C9
S1130EC000FF0000FF2525FF2A2AFF0000FF000085
S1130ED0FF1AFF1A4EFF4F00FF0000DE0100E20080
S1130EE058E4592EC22F00C901000DE10D0DFF89F0
S1130EF089FF0000FF0000FFE89600E89600E896EE
S1130F0000E896001E1FFF0C0CFF0000FF5A5AFF5A
S1130F101515FFE89600E896000000FF0A0AFF3561
S1130F2036FF3C3DFF6365FFE89600E89600E896CF
S1130F3000E89600E896000000FF0000FF0000FFB4
S1130F40E896000000FF0000FF00FF0006FF06080F
S1130F50FF0800F3000BE60B4EB552000DDF000551
S1130F60F00000FF0000FF1B1CFF0000FF0000FF5B
S1130F70E89600E89600E89600E89600E8960000F7
S1130F8000FF0B0BFFA5A5FFC98A3AE89600E89677
S1130F9000E89600E896003738FF2728FFE3940C12
S1130FA0E89600E89600E89600E89600E89600E8DF
S1130FB096000000FFE89600E89600E6950200FF20
S1130FC00000FF0066FF6690FF9000F70004E20651
S1130FD01CA01F009D0300E0010000FF0000FF1C97
S1130FE01DFF0000FF0000FFE896000000FF000066
S1130FF0FFE89600E896000000FF0B0BFF2E2EFF83
S11310000000FF0000FF0000FFE89600E8960000E3
S113101000FF0000FF0000FF0000FF0000FF0000D1
S1131020FFE89600E89600E896000000FF0000FF45
S1131030E89600110CEB00FF000BFF0BBFFFC0771D
S1131040FF7700F90000E30100F40000F50000065A
S1131050F10000FF0000FF0000FF0000FFE8960021
S1131060E896000000FF0000FF0000FFE896000083
S113107000FF0000FF1819FF0C0CFF0000FF000028
S1131080FF0000FFE89600E896000000FF0000FF64
S11310900000FF0000FF0000FF0000FFE89600E8EA
S11310A096000000FF0000FF0000FF0000FF0000AA
S11310B0FF08FF085EFF6000FF0000FB0000E60180
S11310C000EE000008EB0000FF0707FF0000FF0030
S11310D000FF0000FFE89600E896000000FF000013
S11310E0FF0000FFE89600E896000000FF4D4EFF69
S11310F02B2CFF0000FF0000FFE89600E89600E8B4
S113110096000000FF6767FF2424FF0000FFE896B5
S113111000E89600E896000000FF0000FF0000FFD2
S1131120E896000000FF0000FF0000FF00FF000041
S1131130FF000DFE0D5AC05D0001FD0000FF000020
S1131140FFE7E7FF0E0EFF0000FF0000FFE8960038
S1131150E896000000FF0000FF0000FFE89600E8AA
S113116096000000FF0000FF0000FFE89600E896EC
S113117000E89600E896000000FF0000FF8888FF62
S1131180D9D9FFE89600E89600E896000000FF0031
S113119000FF0000FF0000FFE896000000FF0000D1
S11311A0FF00FF0000FF0000FF0006FF0619991C66
S11311B000FE000000FF0000FF0000FF0000FF0031
S11311C000FF0000FFE89600E896000000FF000022
S11311D0FF0000FFE89600E896000000FF0000FF13
S11311E0E89600E896000000FFFEFEFFBCBCFF008E
S11311F000FF0000FF0000FFE89600E89600E89674
S1131200000000FF0000FF0000FF0000FFE8960060
S1131210E89600E896000000FF00FF001CFF1CE8B1
S1131220FFE800FF0000FF000000FF0000FF0000D7
S1131230FF7072FF7A7CFF0000FF0000FFE8960059
S1131240E896000000FF0000FF0000FFE89600E8B9
S113125096000000FF0000FFE89600E896000000FA
S1131260FF0404FF1A1AFF0000FF0000FF2121FF02
S1131270ECA930E89600E896000000FF0000FF00AB
S113128000FF0000FFE89600E89600E896000000E2
S1131290FF0000FF16FF16CBFFCC00FF0000FF008D
S11312A01B1BFF0303FF0000FF0000FF0000FF0003
S11312B000FF7474FFE89703E896000000FF000045
S11312C0FFE89600E896000000FF0000FF0000FF22
S11312D0E89600E89600E89600E89600E89600E8AC
S11312E096000000FF0505FF4F49E9E89600E896DF
S11312F000E89600E89600E896000000FFE89600F3
S1131300E89600E896005C5CFF0202FF00FF95008F
S1131310FFFF00FF890000FFF5F5FF4747FF0000CE
S1131320FF0000FF0000FF0000FFBABAFFE99C0EB7
S11313300000FF0000FF0000FF0000FF1919FF1963
S113134019FF0000FF0000FF0000FFE89600E89688
S113135000EAA11BE897020000FF0000FF0000FF65
S11313600000FFE89600E89600E896008C8CFF28C1
S113137028FF0000FF0000FFE896000000FF9A9A93
S1131380FF0404FF00D8FF00FFFF0BDEFF0000FF97
S11313901B1BFF0303FF0000FF0B0BFF3233FF0097
S11313A000FF6161FF0A0AFF0000FF0000FF000068
S11313B0FF0000FF0404FF0000FF0000FF0000FF27
S11313C00000FF0000FF0000FFCDCDFFE3E3FF0EB0
S11313D00EFF0000FF0000FF0000FF0000FF000000
S11313E0FF2828FFCFCFFFC4C4FF0000FF0000FF89
S11313F00000FF0000FF5354FF0E0EFF2F53FF04A5
S1131400D1FF012BFF0000FF1415FF0F0FFF000099
S1131410FF0606FF0606FF0000FF0202FF0A0BFF9D
S11314200000FF0000FF1313FF3838FF0000FF0027
S113143000FF0000FF0000FF0000FF0000FF0000AD
S1131440FF0000FF0B0BFF0000FF0000FF0000FF88
S11314500404FF1313FF0000FF0505FF2526FF61A9
S113146063FF0000FF0000FF0000FF0000FF1213F5
S1131470FF1212FF0000FF0606FF1516FF1212FFEF
S11314801A1AFF0909FF0000FF0000FF0000FF0017
S113149000FF2627FF1717FF0000FF0000FFA0A092
S11314A0FFCFCFFF9090FF0000FF0000FF0000FF80
S11314B00000FF0000FF0000FF1414FF1515FF00DB
S11314C000FF0000FF2525FFD7D7FFBFBFFF0000A7
S11314D0FF0000FF0505FF5D5FFF0000FF0000FF48
S11314E00000FF0000FF0000FF0000FF0000FF0BF2
S11314F00BFF8888FFBBBBFF5555FF0000FF0000B2
S1131500FF0000FF0000FF0000FF0000E4E7FFE32E
S1131510E7FFE0E4FFE1E5FFE2E6FFE4E7FFE6EAF8
S1131520FFE7EBFFE3E7FFDFE2FFE1E5FFE1E4FFD5
S1131530D6DAFFCDD0FFC7CAFFC4C7FFE0E4FFDFA0
S1131540E2FFD7DBFFDEE2FFDCDFFFC7C9FFC0C37A
S1131550FFC1C4FFC8CBFFD2D6FFE8EBFFF5F9FF0C
S1131560FAFEFFFBFEFFF8FCFFE8ECFFDFE2FFF909
S1131570FDFFF7FBFFF7FBFFF6FAFFF2F6FFF3F7C9
S1131580FFE3E7FFF0F4FFD5D9FFE8EBFFEFF3FF4C
S1131590F2F4FFF3F7FFF0F3FFEDF1FFECF0FFE6F9
S11315A0EAFFB9BCFFBBBEFFBDC0FFAAACFFB8BA1F
S11315B0FFC6C9FFDADDFFDBDFFFD8DCFFE6EAFFA9
S11315C0E0E4FFDCDFFFD0D3FFB5B9FFA9ACFFE552
S11315D0E8FFD4D8FFB4B7FFD3D6FF9EA0FF4B4D8E
S11315E0FF6F71FFA4A7FFA0A2FF7F81FF9D9FFF54
S11315F0BDC0FFECEEFFF8F9FFCCCEFFEDF1FFED3F
S1131600F1FFCBCCFFC1C1FFB3B4FFACACFF999ADF
S1131610FFB7B8FFB0B2FFD9DBFFFBFEFFF9FCFF59
S1131620F3F6FFF7FBFFF7FBFFFAFEFFFBFFFFF507
S1131630F9FFE2E6FFDBDEFFE3E6FFEBEFFFE9EDB8
S1131640FFE8ECFFF5F9FFBDC0FFABAEFFAFB2FFA3
S1131650BFC2FFB2B4FF0A0AFF11437811437811E5
S113166043780000FF0000FF0606FFC9C9FFE2E25D
S1131670FFEAEAFF0000FF4344FFC3C6FFE0E2FFC6
S1131680CED1FFDEE2FFB4B7FFBDBEFFC2C2FFF1A1
S1131690F1FFFBFBFFEEEEFF5B5CFF0101FF7B7DD7
S11316A0FFD6D7FF9293FF9EA0FF3334FF3D3EFF4A
S11316B0CACAFFD6D6FF4343FF3233FFD9DCFF6CDF
S11316C06CFF3334FF2122FF0E0EFF4F4FFF66667F
S11316D0FF1143781143781143780000FF0000FFA5
S11316E00000FF5759FFF5F9FFFAFAFF0000FF0069
S11316F000FF0F0FFF9293FFC5C5FF1414FF0000F6
S1131700FF0D0DFF8585FFEDEDFFCFD0FFC6C6FFB2
S11317100505FF0000FF7D7DFFD4D5FFD5D6FF5B17
S11317205CFF0404FF0000FF4A4BFFF4F8FF0101D3
S1131730FF0000FF0000FFF2F2FFFAFAFF0000FFD3
S11317400000FF1F1FFF2828FF1143781143781161
S113175043780000FF0000FF0000FF1212FF5759FA
S1131760FFC1C1FF0000FF0000FF0000FF0707FFEB
S11317703737FF0000FF1111FF1818FF0000FFB6F4
S1131780B6FFC2C2FF9696FF2122FF0000FF1E1E75
S1131790FF5253FF8284FF6769FF0000FF0000FFD0
S11317A00000FF0000FF0000FF0000FF0000FFCC6E
S11317B0CCFFC1C1FF00EC0100EF0100EF0000FE0F
S11317C00000BD020C4E541143780000FF0000FFDE
S11317D01F1FFF1515FF0000FF0000FF0000FF00A2
S11317E000FF0000FF2728FF3132FF0000FF040440
S11317F0FF1E1EFF0000FFBDBDFF1616FF1313FFE3
S11318000303FF0606FF0202FF0202FF0A0AFF1E8D
S11318101EFF0B0BFF1213FF0000FF0000FF000070
S1131820FF0000FF0000FF2323FF0303FF0000FE6F
S113183000F80000E20100D50200D40100DD01003F
S1131840B60200960300C502D6D7FBCDCEFB00003E
S1131850FF0101FF0000FF0000FF0000FF0A0AFF74
S11318601F1FFF0000FF0000FF0000FF0707FF2805
S113187029FF0000FF2021FF2C2DFF1011FF121261
S1131880FF3F41FF0404FF1E1FFF4747FF3536FF9C
S11318900000FF0000FF0000FF0000FF0000FF3712
S11318A037FF3333FF0000FF00FF0023FF246BFCEE
S11318B06D00EA0000D401009F034EB94F28C92AE5
S11318C000C30200B3020909FF0101FF0000FF0089
S11318D000FF0000FF0000FF0000FF0000FF1414E1
S11318E0FF1212FF0B0BFF1717FF0000FF0000FF92
S11318F00000FF0000FF0303FF1516FF2626FF8BE1
S11319008BFFB3B3FF4C4CFF0000FF0000FF00004F
S1131910FF0000FF0000FF2525FF2A2AFF0000FF2B
S11319200000FF1AFF1A4EFF4F00FF0000DE010007
S1131930E20058E4592EC22F00C901000DE1090943
S1131940FF0303FF0000FF0000FFE89600E8960095
S1131950E89600E896001E1FFF0C0CFF0000FF0E27
S11319600EFF1515FFE89600E896000000FF0A0A2E
S1131970FF3536FF3C3DFFFBFBFFEBA21EE8960064
S1131980E89600E89600E896000000FF0000FF00DB
S113199000FFE896000000FF0000FF00FF0006FFC4
S11319A00608FF0800F3000BE60B4EB552000DDFEE
S11319B00005F01414FF2323FF0B0BFF5959FF6A92
S11319C06AFFE89600E89600E89600E89600E89634
S11319D0000000FF0909FF4848FFC98A3AE8960059
S11319E0E89600E89600E896003738FF2728FFE3DA
S11319F0940CE89600E89600E89600E89600E896CD
S1131A0000E896000000FFE89600E89600E69402DD
S1131A1000FF0000FF0066FF6690FF9000F70004DF
S1131A20E2061CA01F009D035AEB5BE5E5FFF5F5FC
S1131A30FF494AFFF0F0FF7878FFE896000000FFC6
S1131A400000FFE89600E896000000FF0B0BFF2E55
S1131A502EFF0000FF0000FF0000FFE89600E8965C
S1131A60000000FF0000FF0000FF0000FF0000FF77
S1131A700000FFE89600E89600E896000000FF00EA
S1131A8000FFE89600120AEB00FF000BFF0BBFFFFC
S1131A90C077FF7700F90000E30100F40000F500CF
S1131AA0141AF26E6EFF3030FF0000FFCBCBFFE85C
S1131AB09600E896000000FF0000FF0000FFE89693
S1131AC0000000FF0000FF1819FF0C0CFF0000FFCE
S1131AD00000FF0000FFE89600E896000000FF0009
S1131AE000FF0000FF0000FF0000FF0000FFE89679
S1131AF000E896000000FF0000FF0000FF0000FF68
S1131B000000FF08FF085EFF6000FF0000FB00000C
S1131B10E60100EE000008EB0000FF0606FF0000EF
S1131B20FF0000FF0202FFE89600E896000000FFB5
S1131B300000FF0000FFE89600E896000000FF4D5B
S1131B404EFF2B2CFF0000FF0000FFE89600E896F4
S1131B5000E896000000FF2A2AFF2020FF0000FF73
S1131B60E89600E89600E896000000FF0000FF00F9
S1131B7000FFE896000707FF3737FF0000FF00FF6C
S1131B800000FF000DFE0D5AC05D0001FD0000FFC6
S1131B900000FFCCCCFFB2B2FF4040FF0000FFE8E2
S1131BA09600E896000000FF0000FF0000FFE896A2
S1131BB000E896000000FF0000FF0000FFE8960028
S1131BC0E89600E59403CF861B0000FF0000FF1C8D
S1131BD01CFF5959FFE89600E89600E896000000BB
S1131BE0FF0000FF0000FF0000FFE896001717FF4A
S1131BF0A7A7FF00FF0000FF0000FF0006FF061973
S1131C00991C00FE000000FF0000FF3030FF13139A
S1131C10FF0606FF0000FFE89600E896000000FFBC
S1131C201A1AFF0404FFE89600E896000000FF007B
S1131C3000FFE89600E896000000FF2B2BFF2C2CF9
S1131C40FF0000FF0000FF0000FFE89600E8960098
S1131C50E896000000FFA1A1FFECECFF0000FFE804
S1131C609600E89600E896000000FF00FF001CFFC5
S1131C701CE8FFE800FF0000FF000000FF0000FF79
S1131C800000FF1616FF1515FF0000FF0000FFE817
S1131C909600E896000000FFCCCCFFC2C2FFE89695
S1131CA000E896000000FF0000FFE89600E89600B8
S1131CB00000FF2C2CFFBDBDFF0000FF0000FF2132
S1131CC021FFECA930E89600E896000000FFD5D586
S1131CD0FF6E6EFF0000FFE89600E89600E59403AF
S1131CE00000FF0000FF15FF1DC5FFCE00FF000030
S1131CF0FF001B1BFF0303FF0000FF0000FF0000A9
S1131D00FF0000FF2929FFE89703E896000000FF81
S1131D100101FFE89805E896000000FF0000FF00BD
S1131D2000FFE89600E89600E89600E89805EAA027
S1131D3019E896000000FF8E90FFF6E3BBE89600DA
S1131D40E89600E89600EA9F16E999070000FFE884
S1131D509600E89600CC841F1313FF0202FF00FFD5
S1131D60FC00FFEF00FF9F7474FFF5F5FF4747FF8A
S1131D700000FF0000FF0000FF0000FF3333FFE915
S1131D809C0E0000FF0000FF0C0CFFC2C2FF1919DB
S1131D90FF1919FF0000FF0000FF0000FFE8960094
S1131DA0E89600EAA11BE897020000FF0000FF2A62
S1131DB02AFFACACFFEA9D11E89600E8960066663F
S1131DC0FF1C1CFF0000FF0000FFE896000000FF5E
S1131DD02323FF0404FF00FFFF00FFFF15F6FFEAC3
S1131DE0EAFF3636FF0303FF0000FF0B0BFF32331D
S1131DF0FF0000FF1515FF0A0AFF0000FF0000FFA7
S1131E000202FF2C2CFF0404FF0000FF0000FF006F
S1131E1000FF0000FF0000FF0000FF9999FF41410F
S1131E20FF0B0BFF0000FF0C0CFFA5A5FFB2B2FFD8
S1131E300000FF2828FF2828FF2525FF0000FF00B9
S1131E4000FF0000FF0000FF1A1BFF0E0EFF1E9391
S1131E50FF03E5FF0F20FF2222FF1617FF0F0FFFDE
S1131E600000FF0606FF0606FF0000FF0202FF0A4D
S1131E700BFF0000FF0000FF1313FF2727FF0000E4
S1131E80FF0202FF2B2BFF0808FF0707FF0000FFDC
S1131E900000FF0000FF0808FF0000FF0000FF0033
S1131EA000FF0D0DFF4E4EFF0000FF0505FF0B0B5D
S1131EB0FF0505FF0000FF0000FF0000FF0000FF1A
S1131EC01213FF1212FF0000FF0606FF1314FF0F88
S1131ED00FFF1212FF0808FF0000FF0000FF0000C0
S1131EE0FF0000FF2627FF1717FF0000FF0000FF79
S1131EF02B2BFF0909FF7979FF0C0CFFC7C7FFF4EF
S1131F00F4FFECECFF0000FF0000FF1414FF1515B4
S1131F10FF0000FF0000FF2020FF2828FF2828FFE3
S1131F200000FF0000FF0303FF1617FF0000FF007F
S1131F3000FF0000FF0000FF0000FF0000FF0000A2
S1131F40FF0B0BFF2B2BFF1A1AFF0707FF0000FFE5
S1131F500000FF0000FF0000FF0000FF0000E4E7B6
S1131F60FFE3E7FFE0E4FFE1E5FFE2E6FFE4E7FF8C
S1131F70E6EAFFE7EBFFE3E7FFDFE2FFE1E5FFE18E
S1131F80E4FFD6DAFFCDD0FFC7CAFFC4C7FFE0E441
S1131F90FFDFE2FFD7DBFFDEE2FFDCDFFFC7C9FFC5
S1131FA0C0C3FFC1C4FFC8CBFFD2D6FFE8EBFFF527
S1131FB0F9FFFAFEFFFBFEFFF8FCFFE8ECFFDFE2AF
S1131FC0FFF9FDFFF7FBFFF7FBFFF6FAFFF2F6FF61
S1131FD0F3F7FFE3E7FFF0F4FFD5D9FFE8EBFFEFFA
S1131FE0F3FFF2F4FFF3F7FFF0F3FFEDF1FFECF092
S1131FF0FFE6EAFFB9BCFFBBBEFFBDC0FFAAACFF52
S1132000B8BAFFC6C9FFDADDFFDBDFFFD8DCFFE6C5
S1132010EAFFE0E4FFDCDFFFD0D3FFB5B9FFA9ACF2
S1132020FFE5E8FFD4D8FFB4B7FFD3D6FF9EA0FFE7
S11320308D8EFF9294FFA4A7FFD4D5FFD0D1FFAA21
S1132040ABFFBDC0FFECEEFFF8F9FFCCCEFFEDF126
S1132050FFEDF1FFCBCCFFC1C1FFABACFF9292FF10
S1132060999AFFB7B8FFB0B2FFD9DBFFFBFEFFF9C7
S1132070FCFFF3F6FFF7FBFFF7FBFFFAFEFFFBFFA6
S1132080FFF5F9FFE2E6FFDBDEFFE3E6FFEBEFFF40
S1132090E9EDFFE8ECFFF9FBFFF6F7FFEDEDFFDFFD
S11320A0E0FFBFC2FFB2B4FF8E8EFFCCD6E2114375
S11320B0781143785959FF1D1DFF4444FFB2B2FF04
S11320C0E2E2FFEAEAFF0000FF4344FFC3C6FFB9B0
S11320D0BBFF2829FF5658FFB4B7FFBDBEFFC2C2DD
S11320E0FFC4C4FF7272FFE7E7FF5B5CFF0101FFFF
S11320F04C4DFF4646FF7373FF9EA0FF3334FF3DF4
S11321003EFFCACAFFD6D6FF4343FF3233FFDEE1A8
S1132110FFA4A4FFBABAFF9192FF0E0EFF4F4FFF28
S11321206666FF1143781143781143780000FF007D
S113213000FF8E8EFF4C4DFFF5F9FFFAFAFF000009
S1132140FF0000FF0F0FFF6868FF4545FF1414FFF1
S11321500000FF0D0DFF8585FF2121FF2525FF834D
S113216083FF0505FF0000FF3131FF5E5EFFD5D61A
S1132170FFD1D1FF3737FF0000FF4A4BFFF4F8FFD0
S11321800101FF0000FF0000FF0D0DFF9F9FFF00F6
S113219000FF0000FF1F1FFF2828FF114378114391
S11321A0781143780000FF0000FF0000FFA7A7FF9D
S11321B05F61FFC1C1FF5F5FFF0101FF0000FF0717
S11321C007FF3737FF0000FF1111FF1818FF000049
S11321D0FF1818FF5050FF9696FF2122FF0000FFC2
S11321E01D1DFF5051FF8F91FFD2D2FFECECFF0079
S11321F000FF0000FF0000FF0000FF0000FF0000E0
S1132200FF4242FF4C4CFF00EC0100EF0100EF00E5
S113221000FE0000BD020C4E541143780000FF0084
S113222000FF0C0CFF7F7FFF8787FF0000FFD0D0EB
S1132230FF0808FF0000FF2728FF3132FF0000FFDE
S11322400404FF1E1EFF0000FF3636FF1212FF13A8
S113225013FF0303FF0606FF0202FF0202FF0A0A3E
S1132260FF1E1EFF1919FF1213FF0000FF2626FF91
S1132270A7A7FF8383FF0000FF2323FF0303FF00BF
S113228000FE00F80000E20100D50200D40100DDE8
S11322900100B60200960300A7292D2DFE7D7EFCC9
S11322A00000FF0101FFD5D5FFB1B1FF0000FF0A17
S11322B00AFF1F1FFF0000FF0000FF0000FF0707C9
S11322C0FF2829FF0000FF2021FF2C2DFF1011FF04
S11322D01212FF3F41FF0404FF1E1FFF4747FF3553
S11322E036FF0000FF3333FFD2D2FF5D5DFF0000F5
S11322F0FF0707FF0606FF0000FF00FF0023FF247F
S11323006BFC6D00EA0000D401009F034EB94F2816
S1132310C92A00C30200B3020909FF0101FF00003A
S1132320FF0000FF0000FF0000FF0000FF0000FFAF
S11323301414FF1212FF0B0BFF1717FF0000FF000E
S113234000FF0000FF0000FF0303FF1516FF262611
S1132350FF8B8BFFB3B3FF4C4CFF0000FF0000FF6B
S11323607272FF3B3BFF0000FF2B2BFF3232FF005A
S113237000FF0000FF1AFF1A4EFF4F00FF0000DEAF
S11323800100E20058E4592EC22F00C9012D38E69D
S11323901313FF0303FF0000FF0000FFE89600E8AB
S11323A09600E89600E896001E1FFF0C0CFF000044
S11323B0FF0E0EFF1515FFE89600E896000000FFDB
S11323C00A0AFF3536FF3C3DFFFBFBFFEBA21EE88C
S11323D09600E89600E89600E896000000FF0000EA
S11323E0FF0000FFE896000000FF0000FF00FF0070
S11323F006FF0608FF0800F3000BE60B4EB552007B
S11324000DDF0005F0ABABFF6565FF0B0BFF595902
S1132410FF6A6AFFE89600E89600E89600E89600EE
S1132420E896000000FF0909FF4848FFC98A3AE816
S11324309600E89600E89600E896003738FF2728CB
S1132440FFE3940CE89600E89600E89600E896000E
S1132450E89600E896000000FFE89600E89600E899
S1132460960000FF0000FF0066FF6690FF9000F7F3
S11324700004E2061CA01F009D035AEB5BE8E8FF82
S1132480FCFCFF494AFFF0F0FF7878FFE896000073
S113249000FF0000FFE89600E896000000FF0B0B29
S11324A0FF2E2EFF0000FF0000FF0000FFE8960053
S11324B0E896000000FF0000FF0000FF0000FF009E
S11324C000FF0000FFE89600E89600E89600000090
S11324D0FF0000FFE896000000FF00FF000BFF0B69
S11324E0BFFFC077FF7700F90000E30100F40000AC
S11324F0F500141AF22121FF2525FF0000FFCBCBA4
S1132500FFE89600E896000000FF3737FF6161FF9F
S1132510E896000000FF0000FF1819FF0C0CFF00F4
S113252000FF0000FF0000FFE89600E896000000AE
S1132530FF0000FF0000FF0000FF0000FF0000FF9D
S1132540E89600E896000000FF0000FF0000FF008E
S113255000FF0000FF08FF085EFF6000FF0000FBB3
S11325600000E60100EE000008EB0000FF0606FF95
S11325700000FF0000FF0202FFE89600E89600005A
S113258000FFBEBEFFC0C0FFE89600E89600000052
S1132590FF4D4EFF2B2CFF0000FF0000FFE89600CC
S11325A0E89600E896000000FF2A2AFF2020FF009A
S11325B000FFE89600E89600E896000000FF00009F
S11325C0FF0000FFE896000707FF3737FF0000FF12
S11325D000FF0000FF000DFE0D5AC05D0001FD006C
S11325E000FF0000FF2C2CFF1313FF3333FF000008
S11325F0FFE89600E896000000FF2828FF0F0FFF71
S1132600E89600E896000000FF0000FF0000FFE8E5
S11326109600E89600E59403CF861B0000FF0000B7
S1132620FF1C1CFF5959FFE89600E89600E8960045
S11326300000FF0000FF0000FF0000FFE896001705
S113264017FFA7A7FF00FF0000FF0000FF0006FF21
S11326500619991C00FE000000FF0000FF3030FF47
S11326601313FF0606FF0000FFE89600E89600003B
S113267000FF1A1AFF0404FFE89600E89600000021
S1132680FF0000FFE89600E896000000FF2B2BFFF8
S11326902C2CFF0000FF0000FF0000FFE89600E87C
S11326A09600E896000000FF7575FF3030FF0000CB
S11326B0FFE89600E89600E896000000FF00FF009F
S11326C01CFF1CE8FFE800FF0000FF000000FF0003
S11326D000FF0000FF1616FF1515FF0000FF0000A5
S11326E0FFE89600E896000000FFCCCCFFC2C2FFD2
S11326F0E89600E896000000FF0000FFE89600E876
S113270096000000FF2C2CFFBDBDFF0000FF000061
S1132710FF2121FFECA930E89600E896000000FFB5
S11327204949FF5959FF0000FFE89600E89600E583
S113273094030000FF0000FF16FF16CAFFCC00FF41
S11327400000FF001B1BFF0303FF0000FF0000FF4E
S11327500000FF0000FF2929FFE89703E896000026
S113276000FF0101FFE89805E896000000FF000063
S1132770FF0000FFE89600E89600E89600E8980558
S1132780EAA019E896000000FF0505FF5451F4E89B
S11327909600E89600E89600EA9F16E9990700007B
S11327A0FFE89600E89600CC841F1313FF0202FF93
S11327B000FFEF00FFFF00FF9F4A4AFF0E0EFF439A
S11327C043FF0000FF0000FF0000FF0000FF333361
S11327D0FFE99C0E0000FF0000FF0C0CFFC2C2FFCB
S11327E01919FF1919FF0E0EFFD4D4FF6767FFE80C
S11327F09600E89600EAA11BE897020000FF00009B
S1132800FF2424FF3636FFCF8B2CE89600E8960091
S11328106666FF1C1CFF0000FF0000FFE896000036
S113282000FF2323FF0404FF00F8FF00FFFF1BD277
S1132830FF5656FF2F2FFF0303FF0000FF0B0BFF74
S11328403233FF0000FF1515FF0A0AFF0000FF00E6
S113285000FF0202FF2C2CFF0404FF0000FF888805
S1132860FFEDEDFF7272FF0000FF0000FF4A4AFF18
S11328704141FF0B0BFF0000FF0C0CFF1D1DFF412E
S113288041FF0000FF2828FF2828FF2525FF00001E
S1132890FF0000FF0000FF0000FF1A1BFF0E0EFFE9
S11328A03346FF01F7FF0E23FF2020FF1617FF0F0B
S11328B00FFF0000FF0606FF0606FF0000FF0202EE
S11328C0FF0A0BFF0000FF0000FF1313FF2727FF81
S11328D00000FF0101FF1919FF0505FF0505FF00B1
S11328E000FF0000FF0000FF0808FF0000FF0000D9
S11328F0FF0000FF0909FF3E3EFF0000FF1010FF2C
S11329004545FF4141FF3E3EFF3A3AFF0000FF00CC
S113291000FF1213FF1212FF0101FF9C9CFF4A4AA1
S1132920FF0F0FFF1212FF0808FF1A1AFF0909FF11
S11329301D1DFF0000FF2627FF1717FF0000FF00E3
S113294000FF2B2BFF0909FF3E3EFF0303FF1D1D64
S1132950FF1D1DFF1A1AFF0000FF0000FF0E0EFFEF
S11329601515FF0000FF0000FF2020FF2828FF2886
S113297028FF0000FF2121FFAAAAFFB0B1FFA8A8E9
S1132980FF9494FF0000FF0000FF0000FF0000FF21
S11329902525FFD7D7FF3434FF1A1AFF0707FF0096
S11329A000FFBCBCFFD5D5FFC2C2FF0000FF000082
S11329B011241FBECFEFD8E0DEBFCDBF26E0A0E0DC
S11329C0B1E001C01D92AA32B207E1F70E94A51539
S11329D00C944C1B0C940000DC01CB016FB7F894F1
S11329E04BB10000486000005BB10000577F00005D
S11329F037E000002D9100000000000000000000FE
S1132A0000004BB90000220F000068F000005BB921
S1132A1000000000000027FB00003150000069F0B6
S1132A200000EACF00000000000027FB0000315046
S1132A3000005BB9000001F7000037E0000000006F
S1132A4000000000000000004BB9000076F0000018
S1132A50000000005BB900002D9100000197000008
S1132A6059F600006FBF000008952D9100000197F2
S1132A7000005BB9000001F600006FBF0895DC019F
S1132A80CB016FB7F8944BB10000406100005BB11B
S1132A9000005F7E000037E000002D910000000080
S1132AA000000000000000004BB90000220F0000ED
S1132AB068F000005BB900000000000027FB000084
S1132AC03150000069F00000EACF0000000000006F
S1132AD027FB0000315000005BB9000001F7000043
S1132AE037E00000000000000000000000004BB9C7
S1132AF0000076F00000000000005BB900002D919A
S1132B0000000197000059F600006FBF000008950F
S1132B102D910000019700005BB9000001F6000050
S1132B206FBF08951F920F9200905F000F921124BF
S1132B30CF93DF93CDB7DEB70000DF91CF910F9035
S1132B4000925F000F901F9018950F931F93CF93DF
S1132B50DF93CDB7DEB7CF55D1090FB6F894DEBFFA
S1132B600FBECDBF8AE089878AE290E02AE230E096
S1132B70F90120812860FC0120838AE290E02AE2A6
S1132B8030E0F90120812061FC01208381E0888705
S1132B908885843020F488858F5F888702C081E02F
S1132BA088871D821C820BC08C819D818E5F9E4F05
S1132BB0FC0110828C819D8101969D838C838C8184
S1132BC09D818832954080F310920101109200019A
S1132BD088E790E090930101809300011F821E8298
S1132BE060C18885882F90E08230910509F445C042
S1132BF0833091051CF4019749F0E4C083309105BA
S1132C0009F472C0049709F4A6C0DCC08E819F81C8
S1132C109C012F5F3F4F3F832E8388599F4F9B8793
S1132C208A878A859B85FC0184918C878C858B831C
S1132C308E819F819C012F5F3F4F3F832E83885954
S1132C409F4F9E878D878D859E85FC0184918F87FC
S1132C508F858A838E819F819C012F5F3F4F3F83A5
S1132C602E8388599F4F998B888B88899989FC0179
S1132C7084918A8B8A898983A5C08E819F819C01D6
S1132C802F5F3F4F3F832E838654954F9C8B8B8BB6
S1132C908B899C89FC0184918D8B8D898B838E819A
S1132CA09F819C012F5F3F4F3F832E838654954F16
S1132CB09F8B8E8B8E899F89FC018491888F888D50
S1132CC08A838E819F819C012F5F3F4F3F832E8398
S1132CD08654954F9A8F898F898D9A8DFC018491A2
S1132CE08B8F8B8D89836EC08E819F819C012F5F1A
S1132CF03F4F3F832E83845F9A4E9D8F8C8F8C8DA4
S1132D009D8DFC0184918E8F8E8D8B838E819F810E
S1132D109C012F5F3F4F3F832E83845F9A4E98A37D
S1132D208F8F8F8D98A1FC01849189A389A18A83B7
S1132D308E819F819C012F5F3F4F3F832E83845F51
S1132D409A4E9BA38AA38AA19BA1FC0184918CA384
S1132D508CA1898337C08E819F819C012F5F3F4F57
S1132D603F832E83825A904E9EA38DA38DA19EA154
S1132D70FC0184918FA38FA18B838E819F819C0101
S1132D802F5F3F4F3F832E83825A904E99A788A787
S1132D9088A599A5FC0184918AA78AA58A838E8136
S1132DA09F819C012F5F3F4F3F832E83825A904E19
S1132DB09CA78BA78BA59CA5FC0184918DA78DA5B1
S1132DC08983000089819985692F0E94311B898339
S1132DD08A819985692F0E94311B8A838B81998509
S1132DE0692F0E94311B8B83809100019091010116
S1132DF001979093010180930001809100019091CB
S1132E0001018E5F9E4F2B81FC0120838091000184
S1132E1090910101019790930101809300018091A9
S1132E200001909101018E5F9E4F2981FC01208356
S1132E308091000190910101019790930101809389
S1132E40000180910001909101018E5F9E4F2A81C3
S1132E50FC01208340910001509101019A01A9E8ED
S1132E60B8E80E943D1B0024880F991F001C880F9E
S1132E70991F001C892F902D68E7689F9001699F16
S1132E80300D1124CA01821B930B892B51F48091BC
S1132E9000019091010180519F4F90930101809313
S1132EA000018E819F818832954008F49ACE68E2B1
S1132EB075E082E091E00E94EC141D821C820BC03C
S1132EC08C819D818E5F9E4FFC0110828C819D813F
S1132ED001969D838C838C819D818832954080F3FB
S1132EE0109201011092000188E790E09093010193
S1132EF08093000188E295E09F838E83C6C1888514
S1132F00882F90E08230910509F445C08330910503
S1132F101CF4019749F04AC18330910509F472C049
S1132F20049709F4D9C042C18E819F819C012F5F0F
S1132F303F4F3F832E8388599F4F9FA78EA78EA50F
S1132F409FA5FC01849188AB88A98B838E819F8186
S1132F509C012F5F3F4F3F832E8388599F4F9AAB2D
S1132F6089AB89A99AA9FC0184918BAB8BA98A832B
S1132F708E819F819C012F5F3F4F3F832E83885911
S1132F809F4F9DAB8CAB8CA99DA9FC0184918EAB0A
S1132F908EA989830BC18E819F819C012F5F3F4F36
S1132FA03F832E838654954F98AF8FAB8FA998ADEE
S1132FB0FC01849189AF89AD8B838E819F819C01B3
S1132FC02F5F3F4F3F832E838654954F9BAF8AAF2D
S1132FD08AAD9BADFC0184918CAF8CAD8A838E81CC
S1132FE09F819C012F5F3F4F3F832E838654954FD3
S1132FF09EAF8DAF8DAD9EADFC0184918FAF8FAD33
S11330008983D4C08E819F819C012F5F3F4F3F8372
S11330102E839C01245F3A4ECE01805C9F4FFC01BD
S113302031832083CE01805C9F4FFC01808191819C
S1133030FC012491CE018E5B9F4FFC012083CE01C5
S11330408E5B9F4FFC0180818B838E819F819C01CD
S11330502F5F3F4F3F832E839C01245F3A4ECE0166
S11330608D5B9F4FFC0131832083CE018D5B9F4F8D
S1133070FC0180819181FC012491CE018B5B9F4FE7
S1133080FC012083CE018B5B9F4FFC0180818A83EE
S11330908E819F819C012F5F3F4F3F832E839C0134
S11330A0245F3A4ECE018A5B9F4FFC01318320831B
S11330B0CE018A5B9F4FFC0180819181FC012491A8
S11330C0CE01885B9F4FFC012083CE01885B9F4F1C
S11330D0FC01808189836AC08E819F819C012F5F5E
S11330E03F4F3F832E839C01225A304ECE01875B93
S11330F09F4FFC0131832083CE01875B9F4FFC01EE
S113310080819181FC012491CE01855B9F4FFC015C
S11331102083CE01855B9F4FFC0180818B838E8150
S11331209F819C012F5F3F4F3F832E839C01225A36
S1133130304ECE01845B9F4FFC0131832083CE014E
S1133140845B9F4FFC0180819181FC012491CE011D
S1133150825B9F4FFC012083CE01825B9F4FFC0169
S113316080818A838E819F819C012F5F3F4F3F83A3
S11331702E839C01225A304ECE01815B9F4FFC016D
S113318031832083CE01815B9F4FFC01808191813B
S1133190FC012491CE018F5A9F4FFC012083CE0164
S11331A08F5A9F4FFC018081898300008981998512
S11331B0692F0E94311B89838A819985692F0E9416
S11331C0311B8A838B819985692F0E94311B8B83E4
S11331D080910001909101010197909301018093E6
S11331E0000180910001909101018E5F9E4F2B811F
S11331F0FC0120838091000190910101019790933B
S113320001018093000180910001909101018E5F82
S11332109E4F2981FC01208380910001909101013E
S11332200197909301018093000180910001909196
S113323001018E5F9E4F2A81FC0120834091000191
S1133240509101019A01A9E8B8E80E943D1B0024AD
S1133250880F991F001C880F991F001C892F902D1F
S113326068E7689F9001699F300D1124CA01821B91
S1133270930B892B51F480910001909101018051AD
S11332809F4F90930101809300018E819F8180352F
S11332909A4008F434CE68E275E082E091E00E943E
S11332A03F159E012E5A3F4F80E090E0AAE7B4E418
S11332B0F90180839183A283B3838E010A5A1F4F3D
S11332C0CE018E5A9F4F20E030E04AE755E4FC01DE
S11332D060817181828193810E949C1ADC01CB01FF
S11332E0F80180839183A283B383CE018A5A9F4FCE
S11332F020E030E040E85FE3FC016081718182817D
S113330093810E94161A88234CF4CE01865A9F4F4B
S113331021E030E0FC01318320836DC0CE018A5A64
S11333209F4F20E03FEF4FE757E4FC01608171813C
S1133330828193810E94971A18160CF04AC0CE011C
S11333408E5A9F4F20E030E040E251E4FC0160815E
S11333507181828193810E949C1ADC01CB018E01D0
S1133360065A1F4FBC01CD010E941B1ADC01CB0180
S1133370F8019183808324C0CE01845A9F4F20E9B1
S113338031E0FC0131832083CE01845A9F4FFC013C
S1133390808191810197F1F79E01245A3F4FF901F1
S11333A091838083CE01865A9F4F9E01265A3F4FB8
S11333B0F9012081318121503109FC0131832083BD
S11333C0CE01865A9F4FFC0180819181892BA1F601
S11333D02CC08E01065A1F4FCE018A5A9F4FFC0102
S11333E060817181828193810E941B1ADC01CB016F
S11333F0F80191838083CE01825A9F4F9E01265A01
S11334003F4FF90120813181FC0131832083CE01BA
S1133410825A9F4FFC01808191810197F1F79E01AF
S1133420225A3F4FF90191838083B2CB0E944A1AFA
S113343008F481E008950E94761A88F09F5798F066
S1133440B92F9927B751B0F0E1F0660F771F881FA5
S1133450991F1AF0BA95C9F714C0B13091F00E94BF
S1133460901AB1E008950C94901A672F782F88274A
S1133470B85F39F0B93FCCF3869577956795B395E6
S1133480D9F73EF490958095709561957F4F8F4F55
S11334909F4F0895990F0008550FAA0BE0E8FEEF1F
S11334A016161706E807F907C0F012161306E40704
S11334B0F50798F0621B730B840B950B39F40A26FD
S11334C061F0232B242B252B21F408950A2609F4DB
S11334D0A140A6958FEF811D811D089557FD905839
S11334E0440F551F59F05F3F71F04795880F97FBC4
S11334F0991F61F09F3F79F087950895121613067E
S11335001406551FF2CF4695F1DF08C016161706AC
S11335101806991FF1CF86957105610508940895E1
S1133520E894BB2766277727CB0197F908950E9473
S11335304A1A08F48FEF08950E94AF1A0C94201BC6
S11335400E94121B38F00E94191B20F0952311F0E1
S11335500C94091B0C940F1B11240C94911A0E94B7
S11335606E1A70F3959FC1F3950F50E0551F629F3B
S1133570F001729FBB27F00DB11D639FAA27F00DC8
S1133580B11DAA1F649F6627B00DA11D661F829FEF
S11335902227B00DA11D621F739FB00DA11D621FD4
S11335A0839FA00D611D221F749F3327A00D611DF1
S11335B0231F849F600D211D822F762F6A2F1124D3
S11335C09F5750409AF0F1F088234AF0EE0FFF1F06
S11335D0BB1F661F771F881F91505040A9F79E3F5D
S11335E0510580F00C94091B0C94911A5F3FE4F38D
S11335F0983ED4F3869577956795B795F795E795B3
S11336009F5FC1F7FE2B880F911D9695879597F9BB
S1133610089597F99F6780E870E060E008959FEF50
S113362080EC089500240A94161617061806090655
S1133630089500240A941216130614060506089524
S1133640092E0394000C11F4882352F0BB0F40F4AC
S1133650BF2B11F460FF04C06F5F7F4F8F4F9F4FEC
S11336600895991B79E004C0991F961708F0961BDA
S1133670881F7A95C9F780950895A29FB001B39FDA
S1133680C001A39F700D811D1124911DB29F700D67
S10F3690811D1124911D0895F894FFCFB2
S9030000FC
